{
  "contractName": "Adoption",
  "abi": [
    {
      "inputs": [
        {
          "internalType": "address",
          "name": "_plantTokenAddress",
          "type": "address"
        }
      ],
      "stateMutability": "nonpayable",
      "type": "constructor"
    },
    {
      "inputs": [
        {
          "internalType": "uint256",
          "name": "",
          "type": "uint256"
        }
      ],
      "name": "adopters",
      "outputs": [
        {
          "internalType": "address",
          "name": "",
          "type": "address"
        }
      ],
      "stateMutability": "view",
      "type": "function",
      "constant": true
    },
    {
      "inputs": [],
      "name": "plantToken",
      "outputs": [
        {
          "internalType": "contract PlantToken",
          "name": "",
          "type": "address"
        }
      ],
      "stateMutability": "view",
      "type": "function",
      "constant": true
    },
    {
      "inputs": [
        {
          "internalType": "uint256",
          "name": "",
          "type": "uint256"
        }
      ],
      "name": "plants",
      "outputs": [
        {
          "internalType": "address",
          "name": "",
          "type": "address"
        }
      ],
      "stateMutability": "view",
      "type": "function",
      "constant": true
    },
    {
      "inputs": [
        {
          "internalType": "uint256",
          "name": "plantId",
          "type": "uint256"
        }
      ],
      "name": "waterPlant",
      "outputs": [],
      "stateMutability": "nonpayable",
      "type": "function"
    },
    {
      "inputs": [
        {
          "internalType": "uint256",
          "name": "petId",
          "type": "uint256"
        }
      ],
      "name": "adopt",
      "outputs": [
        {
          "internalType": "uint256",
          "name": "",
          "type": "uint256"
        }
      ],
      "stateMutability": "nonpayable",
      "type": "function"
    },
    {
      "inputs": [
        {
          "internalType": "uint256",
          "name": "plantId",
          "type": "uint256"
        }
      ],
      "name": "handleSubmit",
      "outputs": [
        {
          "internalType": "uint256",
          "name": "",
          "type": "uint256"
        }
      ],
      "stateMutability": "nonpayable",
      "type": "function"
    },
    {
      "inputs": [],
      "name": "getPlants",
      "outputs": [
        {
          "internalType": "address[16]",
          "name": "",
          "type": "address[16]"
        }
      ],
      "stateMutability": "view",
      "type": "function",
      "constant": true
    },
    {
      "inputs": [],
      "name": "getAdopters",
      "outputs": [
        {
          "internalType": "address[16]",
          "name": "",
          "type": "address[16]"
        }
      ],
      "stateMutability": "view",
      "type": "function",
      "constant": true
    }
  ],
  "bytecode": "0x608060405234801561000f575f80fd5b506040516104b73803806104b783398101604081905261002e91610053565b602080546001600160a01b0319166001600160a01b0392909216919091179055610080565b5f60208284031215610063575f80fd5b81516001600160a01b0381168114610079575f80fd5b9392505050565b61042a8061008d5f395ff3fe608060405234801561000f575f80fd5b5060043610610085575f3560e01c80638dd2361c116100585780638dd2361c146101025780639886bcfa14610115578063ba50c6611461012a578063d8c620411461013d575f80fd5b80630862fdf3146100895780633de4eb17146100b957806343ae80d3146100ce5780638588b2c5146100e1575b5f80fd5b60205461009c906001600160a01b031681565b6040516001600160a01b0390911681526020015b60405180910390f35b6100c1610145565b6040516100b0919061038f565b61009c6100dc3660046103c9565b61018a565b6100f46100ef3660046103c9565b6101a8565b6040519081526020016100b0565b61009c6101103660046103c9565b610225565b6101286101233660046103c9565b610234565b005b6100f46101383660046103c9565b6102d9565b6100c1610331565b61014d610370565b60408051610200810191829052905f9060109082845b81546001600160a01b03168152600190910190602001808311610163575050505050905090565b5f8160108110610198575f80fd5b01546001600160a01b0316905081565b5f601082106101ef5760405162461bcd60e51b815260206004820152600e60248201526d125b9d985b1a59081c195d08125160921b60448201526064015b60405180910390fd5b335f8360108110610202576102026103e0565b0180546001600160a01b0319166001600160a01b03929092169190911790555090565b60108160108110610198575f80fd5b601081106102775760405162461bcd60e51b815260206004820152601060248201526f125b9d985b1a59081c1b185b9d08125160821b60448201526064016101e6565b60205460405163393840f760e21b8152336004820152602481018390526001600160a01b039091169063e4e103dc906044015f604051808303815f87803b1580156102c0575f80fd5b505af11580156102d2573d5f803e3d5ffd5b5050505050565b5f6010821061031d5760405162461bcd60e51b815260206004820152601060248201526f125b9d985b1a59081c1b185b9d08125160821b60448201526064016101e6565b3360108360108110610202576102026103e0565b610339610370565b60408051610200810191829052601080546001600160a01b0316825290918190601160208501808311610163575050505050905090565b6040518061020001604052806010906020820280368337509192915050565b610200810181835f5b60108110156103c05781516001600160a01b0316835260209283019290910190600101610398565b50505092915050565b5f602082840312156103d9575f80fd5b5035919050565b634e487b7160e01b5f52603260045260245ffdfea264697066735822122077d8fdfd7d88945ba408a655e514e8b5e45dfb95260375252e5d703c79b402ab64736f6c63430008140033",
  "immutableReferences": {},
  "source": "// SPDX-License-Identifier: MIT\npragma solidity ^0.8.0;\n\nimport \"./PlantToken.sol\"; // Import PlantToken contract\n\ncontract Adoption {\n    address[16] public adopters;\n    address[16] public plants;\n\n    PlantToken public plantToken; // Declare a PlantToken instance\n\n    // Constructor to accept the PlantToken contract address\n    constructor(address _plantTokenAddress) {\n        plantToken = PlantToken(_plantTokenAddress); // Initialize the PlantToken instance\n    }\n\n    // Function to reward user for watering a plant\n    function waterPlant(uint256 plantId) external {\n        require(plantId >= 0 && plantId < 16, \"Invalid plant ID\");\n        \n        // Call the rewardUser function from the PlantToken contract\n        plantToken.rewardUser(msg.sender, plantId);\n    }\n\n    // Function to adopt a pet\n    function adopt(uint256 petId) public returns (uint256) {\n        require(petId >= 0 && petId < 16, \"Invalid pet ID\");\n        adopters[petId] = msg.sender;\n        return petId;\n    }\n\n    // Function to submit a plant interaction\n    function handleSubmit(uint256 plantId) public returns (uint256) {\n        require(plantId >= 0 && plantId < 16, \"Invalid plant ID\");\n        plants[plantId] = msg.sender;\n        return plantId;\n    }\n\n    // Function to retrieve all plants\n    function getPlants() public view returns (address[16] memory) {\n        return plants;\n    }\n\n    // Function to retrieve all adopters\n    function getAdopters() public view returns (address[16] memory) {\n        return adopters;\n    }\n}\n",
  "sourcePath": "C:\\Users\\Steph\\Downloads\\Plant-Watering-Reminder-DAPP\\contracts\\Adoption.sol",
  "compiler": {
    "name": "solc",
    "version": "0.8.20+commit.a1b79de6.Emscripten.clang"
  },
  "schemaVersion": "3.4.16",
  "updatedAt": "2025-04-23T21:46:46.448Z",
  "networkType": "ethereum",
  "devdoc": {
    "kind": "dev",
    "methods": {},
    "version": 1
  },
  "userdoc": {
    "kind": "user",
    "methods": {},
    "version": 1
  }
}