{
  "contractName": "Adoption",
  "abi": [
    {
      "inputs": [
        {
          "internalType": "address",
          "name": "_plantTokenAddress",
          "type": "address"
        }
      ],
      "stateMutability": "nonpayable",
      "type": "constructor"
    },
    {
      "inputs": [
        {
          "internalType": "uint256",
          "name": "plantId",
          "type": "uint256"
        }
      ],
      "name": "InvalidPlantId",
      "type": "error"
    },
    {
      "inputs": [
        {
          "internalType": "uint256",
          "name": "plantId",
          "type": "uint256"
        }
      ],
      "name": "PlantAlreadyExists",
      "type": "error"
    },
    {
      "inputs": [
        {
          "internalType": "uint256",
          "name": "plantId",
          "type": "uint256"
        }
      ],
      "name": "PlantDoesNotExist",
      "type": "error"
    },
    {
      "inputs": [
        {
          "internalType": "uint256",
          "name": "remainingTime",
          "type": "uint256"
        }
      ],
      "name": "WateringCooldownNotElapsed",
      "type": "error"
    },
    {
      "anonymous": false,
      "inputs": [
        {
          "indexed": true,
          "internalType": "address",
          "name": "previousOwner",
          "type": "address"
        },
        {
          "indexed": true,
          "internalType": "address",
          "name": "newOwner",
          "type": "address"
        }
      ],
      "name": "OwnershipTransferred",
      "type": "event"
    },
    {
      "anonymous": false,
      "inputs": [
        {
          "indexed": false,
          "internalType": "address",
          "name": "account",
          "type": "address"
        }
      ],
      "name": "Paused",
      "type": "event"
    },
    {
      "anonymous": false,
      "inputs": [
        {
          "indexed": true,
          "internalType": "address",
          "name": "adopter",
          "type": "address"
        },
        {
          "indexed": true,
          "internalType": "uint256",
          "name": "plantId",
          "type": "uint256"
        }
      ],
      "name": "PlantAdopted",
      "type": "event"
    },
    {
      "anonymous": false,
      "inputs": [
        {
          "indexed": true,
          "internalType": "address",
          "name": "user",
          "type": "address"
        },
        {
          "indexed": true,
          "internalType": "uint256",
          "name": "plantId",
          "type": "uint256"
        }
      ],
      "name": "PlantSubmitted",
      "type": "event"
    },
    {
      "anonymous": false,
      "inputs": [
        {
          "indexed": true,
          "internalType": "address",
          "name": "user",
          "type": "address"
        },
        {
          "indexed": true,
          "internalType": "uint256",
          "name": "plantId",
          "type": "uint256"
        }
      ],
      "name": "PlantWatered",
      "type": "event"
    },
    {
      "anonymous": false,
      "inputs": [
        {
          "indexed": false,
          "internalType": "address",
          "name": "account",
          "type": "address"
        }
      ],
      "name": "Unpaused",
      "type": "event"
    },
    {
      "inputs": [],
      "name": "MAX_PLANTS",
      "outputs": [
        {
          "internalType": "uint256",
          "name": "",
          "type": "uint256"
        }
      ],
      "stateMutability": "view",
      "type": "function",
      "constant": true
    },
    {
      "inputs": [
        {
          "internalType": "uint256",
          "name": "",
          "type": "uint256"
        }
      ],
      "name": "adopters",
      "outputs": [
        {
          "internalType": "address",
          "name": "",
          "type": "address"
        }
      ],
      "stateMutability": "view",
      "type": "function",
      "constant": true
    },
    {
      "inputs": [
        {
          "internalType": "address",
          "name": "",
          "type": "address"
        }
      ],
      "name": "lastWateringTime",
      "outputs": [
        {
          "internalType": "uint256",
          "name": "",
          "type": "uint256"
        }
      ],
      "stateMutability": "view",
      "type": "function",
      "constant": true
    },
    {
      "inputs": [],
      "name": "owner",
      "outputs": [
        {
          "internalType": "address",
          "name": "",
          "type": "address"
        }
      ],
      "stateMutability": "view",
      "type": "function",
      "constant": true
    },
    {
      "inputs": [],
      "name": "paused",
      "outputs": [
        {
          "internalType": "bool",
          "name": "",
          "type": "bool"
        }
      ],
      "stateMutability": "view",
      "type": "function",
      "constant": true
    },
    {
      "inputs": [
        {
          "internalType": "uint256",
          "name": "",
          "type": "uint256"
        }
      ],
      "name": "plantExists",
      "outputs": [
        {
          "internalType": "bool",
          "name": "",
          "type": "bool"
        }
      ],
      "stateMutability": "view",
      "type": "function",
      "constant": true
    },
    {
      "inputs": [],
      "name": "plantToken",
      "outputs": [
        {
          "internalType": "contract PlantToken",
          "name": "",
          "type": "address"
        }
      ],
      "stateMutability": "view",
      "type": "function",
      "constant": true
    },
    {
      "inputs": [
        {
          "internalType": "uint256",
          "name": "",
          "type": "uint256"
        }
      ],
      "name": "plants",
      "outputs": [
        {
          "internalType": "address",
          "name": "",
          "type": "address"
        }
      ],
      "stateMutability": "view",
      "type": "function",
      "constant": true
    },
    {
      "inputs": [],
      "name": "renounceOwnership",
      "outputs": [],
      "stateMutability": "nonpayable",
      "type": "function"
    },
    {
      "inputs": [
        {
          "internalType": "address",
          "name": "newOwner",
          "type": "address"
        }
      ],
      "name": "transferOwnership",
      "outputs": [],
      "stateMutability": "nonpayable",
      "type": "function"
    },
    {
      "inputs": [],
      "name": "wateringCooldown",
      "outputs": [
        {
          "internalType": "uint256",
          "name": "",
          "type": "uint256"
        }
      ],
      "stateMutability": "view",
      "type": "function",
      "constant": true
    },
    {
      "inputs": [
        {
          "internalType": "uint256",
          "name": "plantId",
          "type": "uint256"
        }
      ],
      "name": "waterPlant",
      "outputs": [],
      "stateMutability": "nonpayable",
      "type": "function"
    },
    {
      "inputs": [
        {
          "internalType": "uint256",
          "name": "plantId",
          "type": "uint256"
        }
      ],
      "name": "registerPlant",
      "outputs": [],
      "stateMutability": "nonpayable",
      "type": "function"
    },
    {
      "inputs": [
        {
          "internalType": "uint256",
          "name": "plantId",
          "type": "uint256"
        }
      ],
      "name": "adopt",
      "outputs": [],
      "stateMutability": "nonpayable",
      "type": "function"
    },
    {
      "inputs": [],
      "name": "getPlants",
      "outputs": [
        {
          "internalType": "address[16]",
          "name": "",
          "type": "address[16]"
        }
      ],
      "stateMutability": "view",
      "type": "function",
      "constant": true
    },
    {
      "inputs": [],
      "name": "getAdopters",
      "outputs": [
        {
          "internalType": "address[16]",
          "name": "",
          "type": "address[16]"
        }
      ],
      "stateMutability": "view",
      "type": "function",
      "constant": true
    },
    {
      "inputs": [
        {
          "internalType": "uint256",
          "name": "newCooldown",
          "type": "uint256"
        }
      ],
      "name": "setWateringCooldown",
      "outputs": [],
      "stateMutability": "nonpayable",
      "type": "function"
    },
    {
      "inputs": [],
      "name": "pause",
      "outputs": [],
      "stateMutability": "nonpayable",
      "type": "function"
    },
    {
      "inputs": [],
      "name": "unpause",
      "outputs": [],
      "stateMutability": "nonpayable",
      "type": "function"
    }
  ],
  "bytecode": "0x6080604052620151806023553480156200001857600080fd5b506040516200193a3803806200193a83398181016040528101906200003e919062000270565b60016000819055506000600160006101000a81548160ff02191690831515021790555062000081620000756200013b60201b60201c565b6200014360201b60201c565b600073ffffffffffffffffffffffffffffffffffffffff168173ffffffffffffffffffffffffffffffffffffffff1603620000f3576040517f08c379a0000000000000000000000000000000000000000000000000000000008152600401620000ea9062000303565b60405180910390fd5b80602260006101000a81548173ffffffffffffffffffffffffffffffffffffffff021916908373ffffffffffffffffffffffffffffffffffffffff1602179055505062000325565b600033905090565b600060018054906101000a900473ffffffffffffffffffffffffffffffffffffffff169050816001806101000a81548173ffffffffffffffffffffffffffffffffffffffff021916908373ffffffffffffffffffffffffffffffffffffffff1602179055508173ffffffffffffffffffffffffffffffffffffffff168173ffffffffffffffffffffffffffffffffffffffff167f8be0079c531659141344cd1fd0a4f28419497f9722a3daafe3b4186f6b6457e060405160405180910390a35050565b600080fd5b600073ffffffffffffffffffffffffffffffffffffffff82169050919050565b600062000238826200020b565b9050919050565b6200024a816200022b565b81146200025657600080fd5b50565b6000815190506200026a816200023f565b92915050565b60006020828403121562000289576200028862000206565b5b6000620002998482850162000259565b91505092915050565b600082825260208201905092915050565b7f496e76616c696420506c616e74546f6b656e2061646472657373000000000000600082015250565b6000620002eb601a83620002a2565b9150620002f882620002b3565b602082019050919050565b600060208201905081810360008301526200031e81620002dc565b9050919050565b61160580620003356000396000f3fe608060405234801561001057600080fd5b50600436106101215760003560e01c80638456cb59116100ad578063a2af2ec611610071578063a2af2ec6146102c0578063d8c62041146102dc578063e32fc447146102fa578063eb15c1c21461032a578063f2fde38b1461034657610121565b80638456cb59146102305780638588b2c51461023a5780638da5cb5b146102565780638dd2361c146102745780639886bcfa146102a457610121565b80635c975abb116100f45780635c975abb1461019c5780636bcd6d57146101ba5780636c204105146101d85780636c9bf6c2146101f6578063715018a61461022657610121565b80630862fdf3146101265780633de4eb17146101445780633f4ba83a1461016257806343ae80d31461016c575b600080fd5b61012e610362565b60405161013b9190610fc0565b60405180910390f35b61014c610388565b6040516101599190611098565b60405180910390f35b61016a610409565b005b610186600480360381019061018191906110ef565b61041b565b604051610193919061112b565b60405180910390f35b6101a4610451565b6040516101b19190611161565b60405180910390f35b6101c2610468565b6040516101cf919061118b565b60405180910390f35b6101e061046d565b6040516101ed919061118b565b60405180910390f35b610210600480360381019061020b91906111d2565b610473565b60405161021d919061118b565b60405180910390f35b61022e61048b565b005b61023861049f565b005b610254600480360381019061024f91906110ef565b6104b1565b005b61025e61063a565b60405161026b919061112b565b60405180910390f35b61028e600480360381019061028991906110ef565b610662565b60405161029b919061112b565b60405180910390f35b6102be60048036038101906102b991906110ef565b610698565b005b6102da60048036038101906102d591906110ef565b610922565b005b6102e4610977565b6040516102f19190611098565b60405180910390f35b610314600480360381019061030f91906110ef565b6109f8565b6040516103219190611161565b60405180910390f35b610344600480360381019061033f91906110ef565b610a18565b005b610360600480360381019061035b91906111d2565b610ba1565b005b602260009054906101000a900473ffffffffffffffffffffffffffffffffffffffff1681565b610390610f1e565b60026010806020026040519081016040528092919082601080156103ff576020028201915b8160009054906101000a900473ffffffffffffffffffffffffffffffffffffffff1673ffffffffffffffffffffffffffffffffffffffff16815260200190600101908083116103b5575b5050505050905090565b610411610c24565b610419610ca2565b565b6002816010811061042b57600080fd5b016000915054906101000a900473ffffffffffffffffffffffffffffffffffffffff1681565b6000600160009054906101000a900460ff16905090565b601081565b60235481565b60246020528060005260406000206000915090505481565b610493610c24565b61049d6000610d05565b565b6104a7610c24565b6104af610dc8565b565b6104b9610e2a565b6104c1610e74565b806010811061050757806040517fd4bc43f20000000000000000000000000000000000000000000000000000000081526004016104fe919061118b565b60405180910390fd5b6025600083815260200190815260200160002060009054906101000a900460ff161561056a57816040517f3335878c000000000000000000000000000000000000000000000000000000008152600401610561919061118b565b60405180910390fd5b336002836010811061057f5761057e6111ff565b5b0160006101000a81548173ffffffffffffffffffffffffffffffffffffffff021916908373ffffffffffffffffffffffffffffffffffffffff16021790555060016025600084815260200190815260200160002060006101000a81548160ff021916908315150217905550813373ffffffffffffffffffffffffffffffffffffffff167fb7d9ff60dd3a375ba1487d351e845b5b44c3fe501d41dc29cd97d98c60b2f94260405160405180910390a350610637610ec3565b50565b600060018054906101000a900473ffffffffffffffffffffffffffffffffffffffff16905090565b6012816010811061067257600080fd5b016000915054906101000a900473ffffffffffffffffffffffffffffffffffffffff1681565b6106a0610e74565b6106a8610e2a565b80601081106106ee57806040517fd4bc43f20000000000000000000000000000000000000000000000000000000081526004016106e5919061118b565b60405180910390fd5b6025600083815260200190815260200160002060009054906101000a900460ff1661075057816040517ffa11c97c000000000000000000000000000000000000000000000000000000008152600401610747919061118b565b60405180910390fd5b6000602460003373ffffffffffffffffffffffffffffffffffffffff1673ffffffffffffffffffffffffffffffffffffffff168152602001908152602001600020549050602354816107a2919061125d565b4210156107fe5742602354826107b8919061125d565b6107c291906112b3565b6040517fde3696200000000000000000000000000000000000000000000000000000000081526004016107f5919061118b565b60405180910390fd5b42602460003373ffffffffffffffffffffffffffffffffffffffff1673ffffffffffffffffffffffffffffffffffffffff16815260200190815260200160002081905550602260009054906101000a900473ffffffffffffffffffffffffffffffffffffffff1673ffffffffffffffffffffffffffffffffffffffff1663e4e103dc33856040518363ffffffff1660e01b815260040161089f9291906112e7565b600060405180830381600087803b1580156108b957600080fd5b505af11580156108cd573d6000803e3d6000fd5b50505050823373ffffffffffffffffffffffffffffffffffffffff167f0396dc52ba8aa282e143f098884b163e8841c0df23ac1eebff422ce9459991a560405160405180910390a3505061091f610ec3565b50565b61092a610c24565b6000811161096d576040517f08c379a00000000000000000000000000000000000000000000000000000000081526004016109649061136d565b60405180910390fd5b8060238190555050565b61097f610f1e565b60126010806020026040519081016040528092919082601080156109ee576020028201915b8160009054906101000a900473ffffffffffffffffffffffffffffffffffffffff1673ffffffffffffffffffffffffffffffffffffffff16815260200190600101908083116109a4575b5050505050905090565b60256020528060005260406000206000915054906101000a900460ff1681565b610a20610e2a565b610a28610e74565b8060108110610a6e57806040517fd4bc43f2000000000000000000000000000000000000000000000000000000008152600401610a65919061118b565b60405180910390fd5b6025600083815260200190815260200160002060009054906101000a900460ff1615610ad157816040517f3335878c000000000000000000000000000000000000000000000000000000008152600401610ac8919061118b565b60405180910390fd5b60016025600084815260200190815260200160002060006101000a81548160ff0219169083151502179055503360128360108110610b1257610b116111ff565b5b0160006101000a81548173ffffffffffffffffffffffffffffffffffffffff021916908373ffffffffffffffffffffffffffffffffffffffff160217905550813373ffffffffffffffffffffffffffffffffffffffff167f2cc7cbeee251cd1c4f22476088aa86fc3f1bf6b723bc7fdcdba23cafb252bc8660405160405180910390a350610b9e610ec3565b50565b610ba9610c24565b600073ffffffffffffffffffffffffffffffffffffffff168173ffffffffffffffffffffffffffffffffffffffff1603610c18576040517f08c379a0000000000000000000000000000000000000000000000000000000008152600401610c0f906113ff565b60405180910390fd5b610c2181610d05565b50565b610c2c610ecd565b73ffffffffffffffffffffffffffffffffffffffff16610c4a61063a565b73ffffffffffffffffffffffffffffffffffffffff1614610ca0576040517f08c379a0000000000000000000000000000000000000000000000000000000008152600401610c979061146b565b60405180910390fd5b565b610caa610ed5565b6000600160006101000a81548160ff0219169083151502179055507f5db9ee0a495bf2e6ff9c91a7834c1ba4fdd244a5e8aa4e537bd38aeae4b073aa610cee610ecd565b604051610cfb919061112b565b60405180910390a1565b600060018054906101000a900473ffffffffffffffffffffffffffffffffffffffff169050816001806101000a81548173ffffffffffffffffffffffffffffffffffffffff021916908373ffffffffffffffffffffffffffffffffffffffff1602179055508173ffffffffffffffffffffffffffffffffffffffff168173ffffffffffffffffffffffffffffffffffffffff167f8be0079c531659141344cd1fd0a4f28419497f9722a3daafe3b4186f6b6457e060405160405180910390a35050565b610dd0610e2a565b60018060006101000a81548160ff0219169083151502179055507f62e78cea01bee320cd4e420270b5ea74000d11b0c9f74754ebdbfc544b05a258610e13610ecd565b604051610e20919061112b565b60405180910390a1565b610e32610451565b15610e72576040517f08c379a0000000000000000000000000000000000000000000000000000000008152600401610e69906114d7565b60405180910390fd5b565b600260005403610eb9576040517f08c379a0000000000000000000000000000000000000000000000000000000008152600401610eb090611543565b60405180910390fd5b6002600081905550565b6001600081905550565b600033905090565b610edd610451565b610f1c576040517f08c379a0000000000000000000000000000000000000000000000000000000008152600401610f13906115af565b60405180910390fd5b565b604051806102000160405280601090602082028036833780820191505090505090565b600073ffffffffffffffffffffffffffffffffffffffff82169050919050565b6000819050919050565b6000610f86610f81610f7c84610f41565b610f61565b610f41565b9050919050565b6000610f9882610f6b565b9050919050565b6000610faa82610f8d565b9050919050565b610fba81610f9f565b82525050565b6000602082019050610fd56000830184610fb1565b92915050565b600060109050919050565b600081905092915050565b6000819050919050565b600061100682610f41565b9050919050565b61101681610ffb565b82525050565b6000611028838361100d565b60208301905092915050565b6000602082019050919050565b61104a81610fdb565b6110548184610fe6565b925061105f82610ff1565b8060005b83811015611090578151611077878261101c565b965061108283611034565b925050600181019050611063565b505050505050565b6000610200820190506110ae6000830184611041565b92915050565b600080fd5b6000819050919050565b6110cc816110b9565b81146110d757600080fd5b50565b6000813590506110e9816110c3565b92915050565b600060208284031215611105576111046110b4565b5b6000611113848285016110da565b91505092915050565b61112581610ffb565b82525050565b6000602082019050611140600083018461111c565b92915050565b60008115159050919050565b61115b81611146565b82525050565b60006020820190506111766000830184611152565b92915050565b611185816110b9565b82525050565b60006020820190506111a0600083018461117c565b92915050565b6111af81610ffb565b81146111ba57600080fd5b50565b6000813590506111cc816111a6565b92915050565b6000602082840312156111e8576111e76110b4565b5b60006111f6848285016111bd565b91505092915050565b7f4e487b7100000000000000000000000000000000000000000000000000000000600052603260045260246000fd5b7f4e487b7100000000000000000000000000000000000000000000000000000000600052601160045260246000fd5b6000611268826110b9565b9150611273836110b9565b9250827fffffffffffffffffffffffffffffffffffffffffffffffffffffffffffffffff038211156112a8576112a761122e565b5b828201905092915050565b60006112be826110b9565b91506112c9836110b9565b9250828210156112dc576112db61122e565b5b828203905092915050565b60006040820190506112fc600083018561111c565b611309602083018461117c565b9392505050565b600082825260208201905092915050565b7f436f6f6c646f776e206d75737420626520706f73697469766500000000000000600082015250565b6000611357601983611310565b915061136282611321565b602082019050919050565b600060208201905081810360008301526113868161134a565b9050919050565b7f4f776e61626c653a206e6577206f776e657220697320746865207a65726f206160008201527f6464726573730000000000000000000000000000000000000000000000000000602082015250565b60006113e9602683611310565b91506113f48261138d565b604082019050919050565b60006020820190508181036000830152611418816113dc565b9050919050565b7f4f776e61626c653a2063616c6c6572206973206e6f7420746865206f776e6572600082015250565b6000611455602083611310565b91506114608261141f565b602082019050919050565b6000602082019050818103600083015261148481611448565b9050919050565b7f5061757361626c653a2070617573656400000000000000000000000000000000600082015250565b60006114c1601083611310565b91506114cc8261148b565b602082019050919050565b600060208201905081810360008301526114f0816114b4565b9050919050565b7f5265656e7472616e637947756172643a207265656e7472616e742063616c6c00600082015250565b600061152d601f83611310565b9150611538826114f7565b602082019050919050565b6000602082019050818103600083015261155c81611520565b9050919050565b7f5061757361626c653a206e6f7420706175736564000000000000000000000000600082015250565b6000611599601483611310565b91506115a482611563565b602082019050919050565b600060208201905081810360008301526115c88161158c565b905091905056fea2646970667358221220c6c68a56a3e7653ceef64f67622366ddd4ef2f167f8b805a4d989bc858d32ec864736f6c634300080d0033",
  "immutableReferences": {},
  "source": "// SPDX-License-Identifier: MIT\npragma solidity ^0.8.13;\n\nimport \"./PlantToken.sol\"; // Import PlantToken contract\nimport \"@openzeppelin/contracts/security/ReentrancyGuard.sol\";\nimport \"@openzeppelin/contracts/security/Pausable.sol\";\nimport \"@openzeppelin/contracts/access/Ownable.sol\";\n\ncontract Adoption is ReentrancyGuard, Pausable, Ownable {\n    address[16] public adopters;\n    address[16] public plants;\n    PlantToken public plantToken;\n\n    uint256 public constant MAX_PLANTS = 16;\n    uint256 public wateringCooldown = 24 hours;\n    mapping(address => uint256) public lastWateringTime;\n    mapping(uint256 => bool) public plantExists;\n\n    event PlantAdopted(address indexed adopter, uint256 indexed plantId);\n    event PlantWatered(address indexed user, uint256 indexed plantId);\n    event PlantSubmitted(address indexed user, uint256 indexed plantId);\n\n    error InvalidPlantId(uint256 plantId);\n    error WateringCooldownNotElapsed(uint256 remainingTime);\n    error PlantAlreadyExists(uint256 plantId);\n    error PlantDoesNotExist(uint256 plantId);\n\n    constructor(address _plantTokenAddress) Ownable() {\n        require(_plantTokenAddress != address(0), \"Invalid PlantToken address\");\n        plantToken = PlantToken(_plantTokenAddress);\n    }\n\n    modifier validPlantId(uint256 plantId) {\n        if (plantId >= MAX_PLANTS) revert InvalidPlantId(plantId);\n        _;\n    }\n\n    function waterPlant(\n        uint256 plantId\n    ) external nonReentrant whenNotPaused validPlantId(plantId) {\n        if (!plantExists[plantId]) revert PlantDoesNotExist(plantId);\n\n        uint256 lastWatering = lastWateringTime[msg.sender];\n        if (block.timestamp < lastWatering + wateringCooldown) {\n            revert WateringCooldownNotElapsed(\n                (lastWatering + wateringCooldown) - block.timestamp\n            );\n        }\n\n        lastWateringTime[msg.sender] = block.timestamp;\n        plantToken.rewardUser(msg.sender, plantId);\n\n        emit PlantWatered(msg.sender, plantId);\n    }\n\n    function registerPlant(\n        uint256 plantId\n    ) external whenNotPaused nonReentrant validPlantId(plantId) {\n        if (plantExists[plantId]) revert PlantAlreadyExists(plantId);\n\n        plantExists[plantId] = true;\n        plants[plantId] = msg.sender;\n\n        emit PlantSubmitted(msg.sender, plantId);\n    }\n\n    function adopt(\n        uint256 plantId\n    ) external whenNotPaused nonReentrant validPlantId(plantId) {\n        if (plantExists[plantId]) revert PlantAlreadyExists(plantId);\n\n        adopters[plantId] = msg.sender;\n        plantExists[plantId] = true;\n\n        emit PlantAdopted(msg.sender, plantId);\n    }\n\n    function getPlants() public view returns (address[16] memory) {\n        return plants;\n    }\n\n    function getAdopters() public view returns (address[16] memory) {\n        return adopters;\n    }\n\n    function setWateringCooldown(uint256 newCooldown) external onlyOwner {\n        require(newCooldown > 0, \"Cooldown must be positive\");\n        wateringCooldown = newCooldown;\n    }\n\n    function pause() external onlyOwner {\n        _pause();\n    }\n\n    function unpause() external onlyOwner {\n        _unpause();\n    }\n}\n",
  "sourcePath": "C:\\Users\\Steph\\Downloads\\Plant-Watering-Reminder-DAPP\\contracts\\Adoption.sol",
  "compiler": {
    "name": "solc",
    "version": "0.8.13+commit.abaa5c0e.Emscripten.clang"
  },
  "schemaVersion": "3.4.16",
  "updatedAt": "2025-04-26T01:04:53.831Z",
  "networkType": "ethereum",
  "devdoc": {
    "kind": "dev",
    "methods": {
      "owner()": {
        "details": "Returns the address of the current owner."
      },
      "paused()": {
        "details": "Returns true if the contract is paused, and false otherwise."
      },
      "renounceOwnership()": {
        "details": "Leaves the contract without owner. It will not be possible to call `onlyOwner` functions. Can only be called by the current owner. NOTE: Renouncing ownership will leave the contract without an owner, thereby disabling any functionality that is only available to the owner."
      },
      "transferOwnership(address)": {
        "details": "Transfers ownership of the contract to a new account (`newOwner`). Can only be called by the current owner."
      }
    },
    "version": 1
  },
  "userdoc": {
    "kind": "user",
    "methods": {},
    "version": 1
  }
}