{
  "contractName": "Adoption",
  "abi": [
    {
      "inputs": [
        {
          "internalType": "address",
          "name": "_plantTokenAddress",
          "type": "address"
        }
      ],
      "stateMutability": "nonpayable",
      "type": "constructor"
    },
    {
      "inputs": [
        {
          "internalType": "uint256",
          "name": "plantId",
          "type": "uint256"
        }
      ],
      "name": "InvalidPlantId",
      "type": "error"
    },
    {
      "inputs": [
        {
          "internalType": "uint256",
          "name": "plantId",
          "type": "uint256"
        }
      ],
      "name": "PlantAlreadyExists",
      "type": "error"
    },
    {
      "inputs": [
        {
          "internalType": "uint256",
          "name": "plantId",
          "type": "uint256"
        }
      ],
      "name": "PlantDoesNotExist",
      "type": "error"
    },
    {
      "inputs": [
        {
          "internalType": "uint256",
          "name": "remainingTime",
          "type": "uint256"
        }
      ],
      "name": "WateringCooldownNotElapsed",
      "type": "error"
    },
    {
      "anonymous": false,
      "inputs": [
        {
          "indexed": true,
          "internalType": "address",
          "name": "previousOwner",
          "type": "address"
        },
        {
          "indexed": true,
          "internalType": "address",
          "name": "newOwner",
          "type": "address"
        }
      ],
      "name": "OwnershipTransferred",
      "type": "event"
    },
    {
      "anonymous": false,
      "inputs": [
        {
          "indexed": false,
          "internalType": "address",
          "name": "account",
          "type": "address"
        }
      ],
      "name": "Paused",
      "type": "event"
    },
    {
      "anonymous": false,
      "inputs": [
        {
          "indexed": true,
          "internalType": "address",
          "name": "adopter",
          "type": "address"
        },
        {
          "indexed": true,
          "internalType": "uint256",
          "name": "plantId",
          "type": "uint256"
        }
      ],
      "name": "PlantAdopted",
      "type": "event"
    },
    {
      "anonymous": false,
      "inputs": [
        {
          "indexed": true,
          "internalType": "address",
          "name": "user",
          "type": "address"
        },
        {
          "indexed": true,
          "internalType": "uint256",
          "name": "plantId",
          "type": "uint256"
        }
      ],
      "name": "PlantSubmitted",
      "type": "event"
    },
    {
      "anonymous": false,
      "inputs": [
        {
          "indexed": true,
          "internalType": "address",
          "name": "user",
          "type": "address"
        },
        {
          "indexed": true,
          "internalType": "uint256",
          "name": "plantId",
          "type": "uint256"
        }
      ],
      "name": "PlantWatered",
      "type": "event"
    },
    {
      "anonymous": false,
      "inputs": [
        {
          "indexed": false,
          "internalType": "address",
          "name": "account",
          "type": "address"
        }
      ],
      "name": "Unpaused",
      "type": "event"
    },
    {
      "inputs": [],
      "name": "MAX_PLANTS",
      "outputs": [
        {
          "internalType": "uint256",
          "name": "",
          "type": "uint256"
        }
      ],
      "stateMutability": "view",
      "type": "function"
    },
    {
      "inputs": [
        {
          "internalType": "uint256",
          "name": "",
          "type": "uint256"
        }
      ],
      "name": "adopters",
      "outputs": [
        {
          "internalType": "address",
          "name": "",
          "type": "address"
        }
      ],
      "stateMutability": "view",
      "type": "function"
    },
    {
      "inputs": [
        {
          "internalType": "address",
          "name": "",
          "type": "address"
        }
      ],
      "name": "lastWateringTime",
      "outputs": [
        {
          "internalType": "uint256",
          "name": "",
          "type": "uint256"
        }
      ],
      "stateMutability": "view",
      "type": "function"
    },
    {
      "inputs": [],
      "name": "owner",
      "outputs": [
        {
          "internalType": "address",
          "name": "",
          "type": "address"
        }
      ],
      "stateMutability": "view",
      "type": "function"
    },
    {
      "inputs": [],
      "name": "paused",
      "outputs": [
        {
          "internalType": "bool",
          "name": "",
          "type": "bool"
        }
      ],
      "stateMutability": "view",
      "type": "function"
    },
    {
      "inputs": [
        {
          "internalType": "uint256",
          "name": "",
          "type": "uint256"
        }
      ],
      "name": "plantExists",
      "outputs": [
        {
          "internalType": "bool",
          "name": "",
          "type": "bool"
        }
      ],
      "stateMutability": "view",
      "type": "function"
    },
    {
      "inputs": [],
      "name": "plantToken",
      "outputs": [
        {
          "internalType": "contract PlantToken",
          "name": "",
          "type": "address"
        }
      ],
      "stateMutability": "view",
      "type": "function"
    },
    {
      "inputs": [
        {
          "internalType": "uint256",
          "name": "",
          "type": "uint256"
        }
      ],
      "name": "plants",
      "outputs": [
        {
          "internalType": "address",
          "name": "",
          "type": "address"
        }
      ],
      "stateMutability": "view",
      "type": "function"
    },
    {
      "inputs": [],
      "name": "renounceOwnership",
      "outputs": [],
      "stateMutability": "nonpayable",
      "type": "function"
    },
    {
      "inputs": [
        {
          "internalType": "address",
          "name": "newOwner",
          "type": "address"
        }
      ],
      "name": "transferOwnership",
      "outputs": [],
      "stateMutability": "nonpayable",
      "type": "function"
    },
    {
      "inputs": [],
      "name": "wateringCooldown",
      "outputs": [
        {
          "internalType": "uint256",
          "name": "",
          "type": "uint256"
        }
      ],
      "stateMutability": "view",
      "type": "function"
    },
    {
      "inputs": [
        {
          "internalType": "uint256",
          "name": "plantId",
          "type": "uint256"
        }
      ],
      "name": "waterPlant",
      "outputs": [],
      "stateMutability": "nonpayable",
      "type": "function"
    },
    {
      "inputs": [
        {
          "internalType": "uint256",
          "name": "plantId",
          "type": "uint256"
        }
      ],
      "name": "registerPlant",
      "outputs": [],
      "stateMutability": "nonpayable",
      "type": "function"
    },
    {
      "inputs": [
        {
          "internalType": "uint256",
          "name": "plantId",
          "type": "uint256"
        }
      ],
      "name": "adopt",
      "outputs": [],
      "stateMutability": "nonpayable",
      "type": "function"
    },
    {
      "inputs": [],
      "name": "getPlants",
      "outputs": [
        {
          "internalType": "address[16]",
          "name": "",
          "type": "address[16]"
        }
      ],
      "stateMutability": "view",
      "type": "function"
    },
    {
      "inputs": [],
      "name": "getAdopters",
      "outputs": [
        {
          "internalType": "address[16]",
          "name": "",
          "type": "address[16]"
        }
      ],
      "stateMutability": "view",
      "type": "function"
    },
    {
      "inputs": [
        {
          "internalType": "uint256",
          "name": "newCooldown",
          "type": "uint256"
        }
      ],
      "name": "setWateringCooldown",
      "outputs": [],
      "stateMutability": "nonpayable",
      "type": "function"
    },
    {
      "inputs": [],
      "name": "pause",
      "outputs": [],
      "stateMutability": "nonpayable",
      "type": "function"
    },
    {
      "inputs": [],
      "name": "unpause",
      "outputs": [],
      "stateMutability": "nonpayable",
      "type": "function"
    }
  ],
  "bytecode": "0x608060405262015180602355348015610016575f80fd5b50604051610c3f380380610c3f83398101604081905261003591610124565b60015f819055805460ff1916905561004c336100cb565b6001600160a01b0381166100a65760405162461bcd60e51b815260206004820152601a60248201527f496e76616c696420506c616e74546f6b656e2061646472657373000000000000604482015260640160405180910390fd5b602280546001600160a01b0319166001600160a01b0392909216919091179055610151565b600180546001600160a01b03838116610100818102610100600160a81b031985161790945560405193909204169182907f8be0079c531659141344cd1fd0a4f28419497f9722a3daafe3b4186f6b6457e0905f90a35050565b5f60208284031215610134575f80fd5b81516001600160a01b038116811461014a575f80fd5b9392505050565b610ae18061015e5f395ff3fe608060405234801561000f575f80fd5b506004361061011c575f3560e01c80638456cb59116100a9578063a2af2ec61161006e578063a2af2ec614610236578063d8c6204114610249578063e32fc44714610251578063eb15c1c214610273578063f2fde38b14610286575f80fd5b80638456cb59146101df5780638588b2c5146101e75780638da5cb5b146101fa5780638dd2361c146102105780639886bcfa14610223575f80fd5b80635c975abb116100ef5780635c975abb146101825780636bcd6d57146101995780636c204105146101af5780636c9bf6c2146101b8578063715018a6146101d7575f80fd5b80630862fdf3146101205780633de4eb17146101505780633f4ba83a1461016557806343ae80d31461016f575b5f80fd5b602254610133906001600160a01b031681565b6040516001600160a01b0390911681526020015b60405180910390f35b610158610299565b60405161014791906109d9565b61016d6102df565b005b61013361017d366004610a13565b6102f1565b60015460ff165b6040519015158152602001610147565b6101a1601081565b604051908152602001610147565b6101a160235481565b6101a16101c6366004610a2a565b60246020525f908152604090205481565b61016d610310565b61016d610321565b61016d6101f5366004610a13565b610331565b60015461010090046001600160a01b0316610133565b61013361021e366004610a13565b61041f565b61016d610231366004610a13565b61042e565b61016d610244366004610a13565b610594565b6101586105f0565b61018961025f366004610a13565b60256020525f908152604090205460ff1681565b61016d610281366004610a13565b610630565b61016d610294366004610a2a565b610718565b6102a16109ba565b604080516102008101918290529060029060109082845b81546001600160a01b031681526001909101906020018083116102b8575050505050905090565b6102e761078e565b6102ef6107ee565b565b60028160108110610300575f80fd5b01546001600160a01b0316905081565b61031861078e565b6102ef5f610840565b61032961078e565b6102ef610899565b6103396108d4565b61034161091a565b806010811061036b57604051636a5e21f960e11b8152600481018290526024015b60405180910390fd5b5f8281526025602052604090205460ff161561039d57604051630ccd61e360e21b815260048101839052602401610362565b33600283601081106103b1576103b1610a57565b0180546001600160a01b0319166001600160a01b03929092169190911790555f82815260256020526040808220805460ff1916600117905551839133917fb7d9ff60dd3a375ba1487d351e845b5b44c3fe501d41dc29cd97d98c60b2f9429190a35061041c60015f55565b50565b60128160108110610300575f80fd5b61043661091a565b61043e6108d4565b806010811061046357604051636a5e21f960e11b815260048101829052602401610362565b5f8281526025602052604090205460ff1661049457604051633e84725f60e21b815260048101839052602401610362565b335f908152602460205260409020546023546104b09082610a7f565b4210156104ec5742602354826104c69190610a7f565b6104d09190610a98565b6040516306f1b4b160e51b815260040161036291815260200190565b335f81815260246020819052604091829020429055602254915163393840f760e21b8152600481019390935282018590526001600160a01b03169063e4e103dc906044015f604051808303815f87803b158015610547575f80fd5b505af1158015610559573d5f803e3d5ffd5b50506040518592503391507f0396dc52ba8aa282e143f098884b163e8841c0df23ac1eebff422ce9459991a5905f90a3505061041c60015f55565b61059c61078e565b5f81116105eb5760405162461bcd60e51b815260206004820152601960248201527f436f6f6c646f776e206d75737420626520706f736974697665000000000000006044820152606401610362565b602355565b6105f86109ba565b60408051610200810191829052601280546001600160a01b0316825290916010906013602085018083116102b8575050505050905090565b6106386108d4565b61064061091a565b806010811061066557604051636a5e21f960e11b815260048101829052602401610362565b5f8281526025602052604090205460ff161561069757604051630ccd61e360e21b815260048101839052602401610362565b5f828152602560205260409020805460ff1916600117905533601283601081106106c3576106c3610a57565b0180546001600160a01b0319166001600160a01b0392909216919091179055604051829033907f2cc7cbeee251cd1c4f22476088aa86fc3f1bf6b723bc7fdcdba23cafb252bc86905f90a35061041c60015f55565b61072061078e565b6001600160a01b0381166107855760405162461bcd60e51b815260206004820152602660248201527f4f776e61626c653a206e6577206f776e657220697320746865207a65726f206160448201526564647265737360d01b6064820152608401610362565b61041c81610840565b6001546001600160a01b036101009091041633146102ef5760405162461bcd60e51b815260206004820181905260248201527f4f776e61626c653a2063616c6c6572206973206e6f7420746865206f776e65726044820152606401610362565b6107f6610971565b6001805460ff191690557f5db9ee0a495bf2e6ff9c91a7834c1ba4fdd244a5e8aa4e537bd38aeae4b073aa335b6040516001600160a01b03909116815260200160405180910390a1565b600180546001600160a01b03838116610100818102610100600160a81b031985161790945560405193909204169182907f8be0079c531659141344cd1fd0a4f28419497f9722a3daafe3b4186f6b6457e0905f90a35050565b6108a16108d4565b6001805460ff1916811790557f62e78cea01bee320cd4e420270b5ea74000d11b0c9f74754ebdbfc544b05a25833610823565b60015460ff16156102ef5760405162461bcd60e51b815260206004820152601060248201526f14185d5cd8589b194e881c185d5cd95960821b6044820152606401610362565b60025f540361096b5760405162461bcd60e51b815260206004820152601f60248201527f5265656e7472616e637947756172643a207265656e7472616e742063616c6c006044820152606401610362565b60025f55565b60015460ff166102ef5760405162461bcd60e51b815260206004820152601460248201527314185d5cd8589b194e881b9bdd081c185d5cd95960621b6044820152606401610362565b6040518061020001604052806010906020820280368337509192915050565b610200810181835f5b6010811015610a0a5781516001600160a01b03168352602092830192909101906001016109e2565b50505092915050565b5f60208284031215610a23575f80fd5b5035919050565b5f60208284031215610a3a575f80fd5b81356001600160a01b0381168114610a50575f80fd5b9392505050565b634e487b7160e01b5f52603260045260245ffd5b634e487b7160e01b5f52601160045260245ffd5b80820180821115610a9257610a92610a6b565b92915050565b81810381811115610a9257610a92610a6b56fea26469706673582212205a89d01ca4bb0905b71257ccabac8dfefc015c7b9464342ce8a0c5232a6804d364736f6c63430008140033",
  "immutableReferences": {},
  "source": "// SPDX-License-Identifier: MIT\npragma solidity ^0.8.0;\n\nimport \"./PlantToken.sol\"; // Import PlantToken contract\nimport \"@openzeppelin/contracts/security/ReentrancyGuard.sol\";\nimport \"@openzeppelin/contracts/security/Pausable.sol\";\nimport \"@openzeppelin/contracts/access/Ownable.sol\";\n\ncontract Adoption is ReentrancyGuard, Pausable, Ownable {\n    address[16] public adopters;\n    address[16] public plants;\n    PlantToken public plantToken;\n\n    uint256 public constant MAX_PLANTS = 16;\n    uint256 public wateringCooldown = 24 hours;\n    mapping(address => uint256) public lastWateringTime;\n    mapping(uint256 => bool) public plantExists;\n\n    event PlantAdopted(address indexed adopter, uint256 indexed plantId);\n    event PlantWatered(address indexed user, uint256 indexed plantId);\n    event PlantSubmitted(address indexed user, uint256 indexed plantId);\n\n    error InvalidPlantId(uint256 plantId);\n    error WateringCooldownNotElapsed(uint256 remainingTime);\n    error PlantAlreadyExists(uint256 plantId);\n    error PlantDoesNotExist(uint256 plantId);\n\n    constructor(address _plantTokenAddress) Ownable() {\n        require(_plantTokenAddress != address(0), \"Invalid PlantToken address\");\n        plantToken = PlantToken(_plantTokenAddress);\n    }\n\n    modifier validPlantId(uint256 plantId) {\n        if (plantId >= MAX_PLANTS) revert InvalidPlantId(plantId);\n        _;\n    }\n\n    function waterPlant(\n        uint256 plantId\n    ) external nonReentrant whenNotPaused validPlantId(plantId) {\n        if (!plantExists[plantId]) revert PlantDoesNotExist(plantId);\n\n        uint256 lastWatering = lastWateringTime[msg.sender];\n        if (block.timestamp < lastWatering + wateringCooldown) {\n            revert WateringCooldownNotElapsed(\n                (lastWatering + wateringCooldown) - block.timestamp\n            );\n        }\n\n        lastWateringTime[msg.sender] = block.timestamp;\n        plantToken.rewardUser(msg.sender, plantId);\n\n        emit PlantWatered(msg.sender, plantId);\n    }\n\n    function registerPlant(\n        uint256 plantId\n    ) external whenNotPaused nonReentrant validPlantId(plantId) {\n        if (plantExists[plantId]) revert PlantAlreadyExists(plantId);\n\n        plantExists[plantId] = true;\n        plants[plantId] = msg.sender;\n\n        emit PlantSubmitted(msg.sender, plantId);\n    }\n\n    function adopt(\n        uint256 plantId\n    ) external whenNotPaused nonReentrant validPlantId(plantId) {\n        if (plantExists[plantId]) revert PlantAlreadyExists(plantId);\n\n        adopters[plantId] = msg.sender;\n        plantExists[plantId] = true;\n\n        emit PlantAdopted(msg.sender, plantId);\n    }\n\n    function getPlants() public view returns (address[16] memory) {\n        return plants;\n    }\n\n    function getAdopters() public view returns (address[16] memory) {\n        return adopters;\n    }\n\n    function setWateringCooldown(uint256 newCooldown) external onlyOwner {\n        require(newCooldown > 0, \"Cooldown must be positive\");\n        wateringCooldown = newCooldown;\n    }\n\n    function pause() external onlyOwner {\n        _pause();\n    }\n\n    function unpause() external onlyOwner {\n        _unpause();\n    }\n}\n",
  "sourcePath": "C:\\Users\\Steph\\Downloads\\Plant-Watering-Reminder-DAPP\\contracts\\Adoption.sol",
  "compiler": {
    "name": "solc",
    "version": "0.8.20+commit.a1b79de6.Emscripten.clang"
  },
  "schemaVersion": "3.4.16",
  "updatedAt": "2025-04-24T13:18:49.417Z",
  "devdoc": {
    "events": {
      "Paused(address)": {
        "details": "Emitted when the pause is triggered by `account`."
      },
      "Unpaused(address)": {
        "details": "Emitted when the pause is lifted by `account`."
      }
    },
    "kind": "dev",
    "methods": {
      "owner()": {
        "details": "Returns the address of the current owner."
      },
      "paused()": {
        "details": "Returns true if the contract is paused, and false otherwise."
      },
      "renounceOwnership()": {
        "details": "Leaves the contract without owner. It will not be possible to call `onlyOwner` functions. Can only be called by the current owner. NOTE: Renouncing ownership will leave the contract without an owner, thereby disabling any functionality that is only available to the owner."
      },
      "transferOwnership(address)": {
        "details": "Transfers ownership of the contract to a new account (`newOwner`). Can only be called by the current owner."
      }
    },
    "version": 1
  },
  "userdoc": {
    "kind": "user",
    "methods": {},
    "version": 1
  }
}