{
  "contractName": "Adoption",
  "abi": [
    {
      "inputs": [
        {
          "internalType": "address",
          "name": "_plantTokenAddress",
          "type": "address"
        }
      ],
      "stateMutability": "nonpayable",
      "type": "constructor"
    },
    {
      "inputs": [
        {
          "internalType": "uint256",
          "name": "",
          "type": "uint256"
        }
      ],
      "name": "adopters",
      "outputs": [
        {
          "internalType": "address",
          "name": "",
          "type": "address"
        }
      ],
      "stateMutability": "view",
      "type": "function"
    },
    {
      "inputs": [],
      "name": "plantToken",
      "outputs": [
        {
          "internalType": "contract PlantToken",
          "name": "",
          "type": "address"
        }
      ],
      "stateMutability": "view",
      "type": "function"
    },
    {
      "inputs": [
        {
          "internalType": "uint256",
          "name": "",
          "type": "uint256"
        }
      ],
      "name": "plants",
      "outputs": [
        {
          "internalType": "address",
          "name": "",
          "type": "address"
        }
      ],
      "stateMutability": "view",
      "type": "function"
    },
    {
      "inputs": [
        {
          "internalType": "uint256",
          "name": "plantId",
          "type": "uint256"
        }
      ],
      "name": "waterPlant",
      "outputs": [],
      "stateMutability": "nonpayable",
      "type": "function"
    },
    {
      "inputs": [
        {
          "internalType": "uint256",
          "name": "petId",
          "type": "uint256"
        }
      ],
      "name": "adopt",
      "outputs": [
        {
          "internalType": "uint256",
          "name": "",
          "type": "uint256"
        }
      ],
      "stateMutability": "nonpayable",
      "type": "function"
    },
    {
      "inputs": [
        {
          "internalType": "uint256",
          "name": "plantId",
          "type": "uint256"
        }
      ],
      "name": "handleSubmit",
      "outputs": [
        {
          "internalType": "uint256",
          "name": "",
          "type": "uint256"
        }
      ],
      "stateMutability": "nonpayable",
      "type": "function"
    },
    {
      "inputs": [],
      "name": "getPlants",
      "outputs": [
        {
          "internalType": "address[16]",
          "name": "",
          "type": "address[16]"
        }
      ],
      "stateMutability": "view",
      "type": "function"
    },
    {
      "inputs": [],
      "name": "getAdopters",
      "outputs": [
        {
          "internalType": "address[16]",
          "name": "",
          "type": "address[16]"
        }
      ],
      "stateMutability": "view",
      "type": "function"
    }
  ],
  "bytecode": "0x608060405234801561000f575f80fd5b50604051610a29380380610a29833981810160405281019061003191906100d5565b8060205f6101000a81548173ffffffffffffffffffffffffffffffffffffffff021916908373ffffffffffffffffffffffffffffffffffffffff16021790555050610100565b5f80fd5b5f73ffffffffffffffffffffffffffffffffffffffff82169050919050565b5f6100a48261007b565b9050919050565b6100b48161009a565b81146100be575f80fd5b50565b5f815190506100cf816100ab565b92915050565b5f602082840312156100ea576100e9610077565b5b5f6100f7848285016100c1565b91505092915050565b61091c8061010d5f395ff3fe608060405234801561000f575f80fd5b5060043610610086575f3560e01c80638dd2361c116100595780638dd2361c146101265780639886bcfa14610156578063ba50c66114610172578063d8c62041146101a257610086565b80630862fdf31461008a5780633de4eb17146100a857806343ae80d3146100c65780638588b2c5146100f6575b5f80fd5b6100926101c0565b60405161009f9190610617565b60405180910390f35b6100b06101e5565b6040516100bd91906106e6565b60405180910390f35b6100e060048036038101906100db9190610737565b610264565b6040516100ed9190610771565b60405180910390f35b610110600480360381019061010b9190610737565b610297565b60405161011d9190610799565b60405180910390f35b610140600480360381019061013b9190610737565b610341565b60405161014d9190610771565b60405180910390f35b610170600480360381019061016b9190610737565b610375565b005b61018c60048036038101906101879190610737565b610450565b6040516101999190610799565b60405180910390f35b6101aa6104fb565b6040516101b791906106e6565b60405180910390f35b60205f9054906101000a900473ffffffffffffffffffffffffffffffffffffffff1681565b6101ed61057a565b5f60108060200260405190810160405280929190826010801561025a576020028201915b815f9054906101000a900473ffffffffffffffffffffffffffffffffffffffff1673ffffffffffffffffffffffffffffffffffffffff1681526020019060010190808311610211575b5050505050905090565b5f8160108110610272575f80fd5b015f915054906101000a900473ffffffffffffffffffffffffffffffffffffffff1681565b5f8082101580156102a85750601082105b6102e7576040517f08c379a00000000000000000000000000000000000000000000000000000000081526004016102de9061080c565b60405180910390fd5b335f83601081106102fb576102fa61082a565b5b015f6101000a81548173ffffffffffffffffffffffffffffffffffffffff021916908373ffffffffffffffffffffffffffffffffffffffff160217905550819050919050565b60108160108110610350575f80fd5b015f915054906101000a900473ffffffffffffffffffffffffffffffffffffffff1681565b5f81101580156103855750601081105b6103c4576040517f08c379a00000000000000000000000000000000000000000000000000000000081526004016103bb906108a1565b60405180910390fd5b60205f9054906101000a900473ffffffffffffffffffffffffffffffffffffffff1673ffffffffffffffffffffffffffffffffffffffff1663e4e103dc33836040518363ffffffff1660e01b81526004016104209291906108bf565b5f604051808303815f87803b158015610437575f80fd5b505af1158015610449573d5f803e3d5ffd5b5050505050565b5f8082101580156104615750601082105b6104a0576040517f08c379a0000000000000000000000000000000000000000000000000000000008152600401610497906108a1565b60405180910390fd5b33601083601081106104b5576104b461082a565b5b015f6101000a81548173ffffffffffffffffffffffffffffffffffffffff021916908373ffffffffffffffffffffffffffffffffffffffff160217905550819050919050565b61050361057a565b60108080602002604051908101604052809291908260108015610570576020028201915b815f9054906101000a900473ffffffffffffffffffffffffffffffffffffffff1673ffffffffffffffffffffffffffffffffffffffff1681526020019060010190808311610527575b5050505050905090565b604051806102000160405280601090602082028036833780820191505090505090565b5f73ffffffffffffffffffffffffffffffffffffffff82169050919050565b5f819050919050565b5f6105df6105da6105d58461059d565b6105bc565b61059d565b9050919050565b5f6105f0826105c5565b9050919050565b5f610601826105e6565b9050919050565b610611816105f7565b82525050565b5f60208201905061062a5f830184610608565b92915050565b5f60109050919050565b5f81905092915050565b5f819050919050565b5f6106578261059d565b9050919050565b6106678161064d565b82525050565b5f610678838361065e565b60208301905092915050565b5f602082019050919050565b61069981610630565b6106a3818461063a565b92506106ae82610644565b805f5b838110156106de5781516106c5878261066d565b96506106d083610684565b9250506001810190506106b1565b505050505050565b5f610200820190506106fa5f830184610690565b92915050565b5f80fd5b5f819050919050565b61071681610704565b8114610720575f80fd5b50565b5f813590506107318161070d565b92915050565b5f6020828403121561074c5761074b610700565b5b5f61075984828501610723565b91505092915050565b61076b8161064d565b82525050565b5f6020820190506107845f830184610762565b92915050565b61079381610704565b82525050565b5f6020820190506107ac5f83018461078a565b92915050565b5f82825260208201905092915050565b7f496e76616c6964207065742049440000000000000000000000000000000000005f82015250565b5f6107f6600e836107b2565b9150610801826107c2565b602082019050919050565b5f6020820190508181035f830152610823816107ea565b9050919050565b7f4e487b71000000000000000000000000000000000000000000000000000000005f52603260045260245ffd5b7f496e76616c696420706c616e74204944000000000000000000000000000000005f82015250565b5f61088b6010836107b2565b915061089682610857565b602082019050919050565b5f6020820190508181035f8301526108b88161087f565b9050919050565b5f6040820190506108d25f830185610762565b6108df602083018461078a565b939250505056fea2646970667358221220927bbdecef7068a108ccf54e51ab28f0c2f89379532b0210211685ea38f145e964736f6c63430008140033",
  "immutableReferences": {},
  "source": "// SPDX-License-Identifier: MIT\npragma solidity ^0.8.0;\n\nimport \"./PlantToken.sol\"; // Import PlantToken contract\n\ncontract Adoption {\n    address[16] public adopters;\n    address[16] public plants;\n\n    PlantToken public plantToken; // Declare a PlantToken instance\n\n    // Constructor to accept the PlantToken contract address\n    constructor(address _plantTokenAddress) {\n        plantToken = PlantToken(_plantTokenAddress); // Initialize the PlantToken instance\n    }\n\n    // Function to reward user for watering a plant\n    function waterPlant(uint256 plantId) external {\n        require(plantId >= 0 && plantId < 16, \"Invalid plant ID\");\n        \n        // Call the rewardUser function from the PlantToken contract\n        plantToken.rewardUser(msg.sender, plantId);\n    }\n\n    // Function to adopt a pet\n    function adopt(uint256 petId) public returns (uint256) {\n        require(petId >= 0 && petId < 16, \"Invalid pet ID\");\n        adopters[petId] = msg.sender;\n        return petId;\n    }\n\n    // Function to submit a plant interaction\n    function handleSubmit(uint256 plantId) public returns (uint256) {\n        require(plantId >= 0 && plantId < 16, \"Invalid plant ID\");\n        plants[plantId] = msg.sender;\n        return plantId;\n    }\n\n    // Function to retrieve all plants\n    function getPlants() public view returns (address[16] memory) {\n        return plants;\n    }\n\n    // Function to retrieve all adopters\n    function getAdopters() public view returns (address[16] memory) {\n        return adopters;\n    }\n}\n",
  "sourcePath": "C:\\Users\\Steph\\Downloads\\Plant-Watering-Reminder-DAPP\\contracts\\Adoption.sol",
  "compiler": {
    "name": "solc",
    "version": "0.8.20+commit.a1b79de6.Emscripten.clang"
  },
  "schemaVersion": "3.4.16",
  "updatedAt": "2025-04-22T23:16:41.061Z",
  "devdoc": {
    "kind": "dev",
    "methods": {},
    "version": 1
  },
  "userdoc": {
    "kind": "user",
    "methods": {},
    "version": 1
  }
}