{
  "contractName": "PlantToken",
  "abi": [
    {
      "inputs": [],
      "stateMutability": "nonpayable",
      "type": "constructor"
    },
    {
      "inputs": [],
      "name": "InvalidAddress",
      "type": "error"
    },
    {
      "inputs": [
        {
          "internalType": "uint256",
          "name": "plantId",
          "type": "uint256"
        }
      ],
      "name": "NoRewardSet",
      "type": "error"
    },
    {
      "inputs": [
        {
          "internalType": "uint256",
          "name": "remainingTime",
          "type": "uint256"
        }
      ],
      "name": "RewardCooldownNotElapsed",
      "type": "error"
    },
    {
      "anonymous": false,
      "inputs": [
        {
          "indexed": true,
          "internalType": "address",
          "name": "owner",
          "type": "address"
        },
        {
          "indexed": true,
          "internalType": "address",
          "name": "spender",
          "type": "address"
        },
        {
          "indexed": false,
          "internalType": "uint256",
          "name": "value",
          "type": "uint256"
        }
      ],
      "name": "Approval",
      "type": "event"
    },
    {
      "anonymous": false,
      "inputs": [
        {
          "indexed": true,
          "internalType": "address",
          "name": "previousOwner",
          "type": "address"
        },
        {
          "indexed": true,
          "internalType": "address",
          "name": "newOwner",
          "type": "address"
        }
      ],
      "name": "OwnershipTransferred",
      "type": "event"
    },
    {
      "anonymous": false,
      "inputs": [
        {
          "indexed": false,
          "internalType": "address",
          "name": "account",
          "type": "address"
        }
      ],
      "name": "Paused",
      "type": "event"
    },
    {
      "anonymous": false,
      "inputs": [
        {
          "indexed": true,
          "internalType": "address",
          "name": "user",
          "type": "address"
        },
        {
          "indexed": true,
          "internalType": "uint256",
          "name": "plantId",
          "type": "uint256"
        },
        {
          "indexed": false,
          "internalType": "uint256",
          "name": "amount",
          "type": "uint256"
        }
      ],
      "name": "RewardClaimed",
      "type": "event"
    },
    {
      "anonymous": false,
      "inputs": [
        {
          "indexed": true,
          "internalType": "uint256",
          "name": "plantId",
          "type": "uint256"
        }
      ],
      "name": "RewardSetForPlant",
      "type": "event"
    },
    {
      "anonymous": false,
      "inputs": [
        {
          "indexed": true,
          "internalType": "address",
          "name": "from",
          "type": "address"
        },
        {
          "indexed": true,
          "internalType": "address",
          "name": "to",
          "type": "address"
        },
        {
          "indexed": false,
          "internalType": "uint256",
          "name": "value",
          "type": "uint256"
        }
      ],
      "name": "Transfer",
      "type": "event"
    },
    {
      "anonymous": false,
      "inputs": [
        {
          "indexed": false,
          "internalType": "address",
          "name": "account",
          "type": "address"
        }
      ],
      "name": "Unpaused",
      "type": "event"
    },
    {
      "inputs": [],
      "name": "REWARD_AMOUNT",
      "outputs": [
        {
          "internalType": "uint256",
          "name": "",
          "type": "uint256"
        }
      ],
      "stateMutability": "view",
      "type": "function"
    },
    {
      "inputs": [
        {
          "internalType": "address",
          "name": "owner",
          "type": "address"
        },
        {
          "internalType": "address",
          "name": "spender",
          "type": "address"
        }
      ],
      "name": "allowance",
      "outputs": [
        {
          "internalType": "uint256",
          "name": "",
          "type": "uint256"
        }
      ],
      "stateMutability": "view",
      "type": "function"
    },
    {
      "inputs": [
        {
          "internalType": "address",
          "name": "spender",
          "type": "address"
        },
        {
          "internalType": "uint256",
          "name": "amount",
          "type": "uint256"
        }
      ],
      "name": "approve",
      "outputs": [
        {
          "internalType": "bool",
          "name": "",
          "type": "bool"
        }
      ],
      "stateMutability": "nonpayable",
      "type": "function"
    },
    {
      "inputs": [
        {
          "internalType": "address",
          "name": "account",
          "type": "address"
        }
      ],
      "name": "balanceOf",
      "outputs": [
        {
          "internalType": "uint256",
          "name": "",
          "type": "uint256"
        }
      ],
      "stateMutability": "view",
      "type": "function"
    },
    {
      "inputs": [],
      "name": "decimals",
      "outputs": [
        {
          "internalType": "uint8",
          "name": "",
          "type": "uint8"
        }
      ],
      "stateMutability": "view",
      "type": "function"
    },
    {
      "inputs": [
        {
          "internalType": "address",
          "name": "spender",
          "type": "address"
        },
        {
          "internalType": "uint256",
          "name": "subtractedValue",
          "type": "uint256"
        }
      ],
      "name": "decreaseAllowance",
      "outputs": [
        {
          "internalType": "bool",
          "name": "",
          "type": "bool"
        }
      ],
      "stateMutability": "nonpayable",
      "type": "function"
    },
    {
      "inputs": [
        {
          "internalType": "address",
          "name": "spender",
          "type": "address"
        },
        {
          "internalType": "uint256",
          "name": "addedValue",
          "type": "uint256"
        }
      ],
      "name": "increaseAllowance",
      "outputs": [
        {
          "internalType": "bool",
          "name": "",
          "type": "bool"
        }
      ],
      "stateMutability": "nonpayable",
      "type": "function"
    },
    {
      "inputs": [
        {
          "internalType": "address",
          "name": "",
          "type": "address"
        }
      ],
      "name": "lastRewardTime",
      "outputs": [
        {
          "internalType": "uint256",
          "name": "",
          "type": "uint256"
        }
      ],
      "stateMutability": "view",
      "type": "function"
    },
    {
      "inputs": [],
      "name": "name",
      "outputs": [
        {
          "internalType": "string",
          "name": "",
          "type": "string"
        }
      ],
      "stateMutability": "view",
      "type": "function"
    },
    {
      "inputs": [],
      "name": "owner",
      "outputs": [
        {
          "internalType": "address",
          "name": "",
          "type": "address"
        }
      ],
      "stateMutability": "view",
      "type": "function"
    },
    {
      "inputs": [],
      "name": "paused",
      "outputs": [
        {
          "internalType": "bool",
          "name": "",
          "type": "bool"
        }
      ],
      "stateMutability": "view",
      "type": "function"
    },
    {
      "inputs": [],
      "name": "renounceOwnership",
      "outputs": [],
      "stateMutability": "nonpayable",
      "type": "function"
    },
    {
      "inputs": [],
      "name": "rewardCooldown",
      "outputs": [
        {
          "internalType": "uint256",
          "name": "",
          "type": "uint256"
        }
      ],
      "stateMutability": "view",
      "type": "function"
    },
    {
      "inputs": [
        {
          "internalType": "uint256",
          "name": "",
          "type": "uint256"
        }
      ],
      "name": "rewardSet",
      "outputs": [
        {
          "internalType": "bool",
          "name": "",
          "type": "bool"
        }
      ],
      "stateMutability": "view",
      "type": "function"
    },
    {
      "inputs": [],
      "name": "symbol",
      "outputs": [
        {
          "internalType": "string",
          "name": "",
          "type": "string"
        }
      ],
      "stateMutability": "view",
      "type": "function"
    },
    {
      "inputs": [],
      "name": "totalSupply",
      "outputs": [
        {
          "internalType": "uint256",
          "name": "",
          "type": "uint256"
        }
      ],
      "stateMutability": "view",
      "type": "function"
    },
    {
      "inputs": [
        {
          "internalType": "address",
          "name": "to",
          "type": "address"
        },
        {
          "internalType": "uint256",
          "name": "amount",
          "type": "uint256"
        }
      ],
      "name": "transfer",
      "outputs": [
        {
          "internalType": "bool",
          "name": "",
          "type": "bool"
        }
      ],
      "stateMutability": "nonpayable",
      "type": "function"
    },
    {
      "inputs": [
        {
          "internalType": "address",
          "name": "from",
          "type": "address"
        },
        {
          "internalType": "address",
          "name": "to",
          "type": "address"
        },
        {
          "internalType": "uint256",
          "name": "amount",
          "type": "uint256"
        }
      ],
      "name": "transferFrom",
      "outputs": [
        {
          "internalType": "bool",
          "name": "",
          "type": "bool"
        }
      ],
      "stateMutability": "nonpayable",
      "type": "function"
    },
    {
      "inputs": [
        {
          "internalType": "address",
          "name": "newOwner",
          "type": "address"
        }
      ],
      "name": "transferOwnership",
      "outputs": [],
      "stateMutability": "nonpayable",
      "type": "function"
    },
    {
      "inputs": [
        {
          "internalType": "address",
          "name": "user",
          "type": "address"
        },
        {
          "internalType": "uint256",
          "name": "plantId",
          "type": "uint256"
        }
      ],
      "name": "rewardUser",
      "outputs": [],
      "stateMutability": "nonpayable",
      "type": "function"
    },
    {
      "inputs": [
        {
          "internalType": "uint256",
          "name": "plantId",
          "type": "uint256"
        }
      ],
      "name": "setRewardForPlant",
      "outputs": [],
      "stateMutability": "nonpayable",
      "type": "function"
    },
    {
      "inputs": [
        {
          "internalType": "uint256",
          "name": "newCooldown",
          "type": "uint256"
        }
      ],
      "name": "setRewardCooldown",
      "outputs": [],
      "stateMutability": "nonpayable",
      "type": "function"
    },
    {
      "inputs": [],
      "name": "pause",
      "outputs": [],
      "stateMutability": "nonpayable",
      "type": "function"
    },
    {
      "inputs": [],
      "name": "unpause",
      "outputs": [],
      "stateMutability": "nonpayable",
      "type": "function"
    }
  ],
  "bytecode": "0x60806040526201518060085534801562000017575f80fd5b506040518060400160405280600b81526020016a283630b73a102a37b5b2b760a91b8152506040518060400160405280600381526020016214131560ea1b81525081600390816200006991906200027d565b5060046200007882826200027d565b505050620000956200008f620000c060201b60201c565b620000c4565b60016006556007805460ff19169055620000ba3369d3c21bcecceda100000062000115565b6200036b565b3390565b600580546001600160a01b038381166001600160a01b0319831681179093556040519116919082907f8be0079c531659141344cd1fd0a4f28419497f9722a3daafe3b4186f6b6457e0905f90a35050565b6001600160a01b038216620001705760405162461bcd60e51b815260206004820152601f60248201527f45524332303a206d696e7420746f20746865207a65726f206164647265737300604482015260640160405180910390fd5b8060025f82825462000183919062000345565b90915550506001600160a01b0382165f81815260208181526040808320805486019055518481527fddf252ad1be2c89b69c2b068fc378daa952ba7f163c4a11628f55a4df523b3ef910160405180910390a35050565b505050565b634e487b7160e01b5f52604160045260245ffd5b600181811c908216806200020757607f821691505b6020821081036200022657634e487b7160e01b5f52602260045260245ffd5b50919050565b601f821115620001d9575f81815260208120601f850160051c81016020861015620002545750805b601f850160051c820191505b81811015620002755782815560010162000260565b505050505050565b81516001600160401b03811115620002995762000299620001de565b620002b181620002aa8454620001f2565b846200022c565b602080601f831160018114620002e7575f8415620002cf5750858301515b5f19600386901b1c1916600185901b17855562000275565b5f85815260208120601f198616915b828110156200031757888601518255948401946001909101908401620002f6565b50858210156200033557878501515f19600388901b60f8161c191681555b5050505050600190811b01905550565b808201808211156200036557634e487b7160e01b5f52601160045260245ffd5b92915050565b610f2580620003795f395ff3fe608060405234801561000f575f80fd5b5060043610610153575f3560e01c8063715018a6116100bf578063a9059cbb11610079578063a9059cbb146102c9578063cf849442146102dc578063dd62ed3e146102eb578063e4e103dc146102fe578063f2fde38b14610311578063f43d19b914610324575f80fd5b8063715018a6146102705780638456cb59146102785780638da5cb5b1461028057806395d89b411461029b57806396f826ae146102a3578063a457c2d7146102b6575f80fd5b8063313ce56711610110578063313ce567146101f457806339509351146102035780633b5d441e146102165780633f4ba83a146102355780635c975abb1461023d57806370a0823114610248575f80fd5b806306fdde0314610157578063095ea7b31461017557806318160ddd146101985780631ff9182f146101aa57806323b872dd146101bf578063266b2434146101d2575b5f80fd5b61015f61032d565b60405161016c9190610d4e565b60405180910390f35b610188610183366004610db4565b6103bd565b604051901515815260200161016c565b6002545b60405190815260200161016c565b6101bd6101b8366004610ddc565b6103d6565b005b6101886101cd366004610df3565b6103e3565b6101886101e0366004610ddc565b600a6020525f908152604090205460ff1681565b6040516012815260200161016c565b610188610211366004610db4565b610406565b61019c610224366004610e2c565b60096020525f908152604090205481565b6101bd610427565b60075460ff16610188565b61019c610256366004610e2c565b6001600160a01b03165f9081526020819052604090205490565b6101bd610439565b6101bd61044a565b6005546040516001600160a01b03909116815260200161016c565b61015f61045a565b6101bd6102b1366004610ddc565b610469565b6101886102c4366004610db4565b6104b3565b6101886102d7366004610db4565b610532565b61019c678ac7230489e8000081565b61019c6102f9366004610e4c565b61053f565b6101bd61030c366004610db4565b610569565b6101bd61031f366004610e2c565b6106b9565b61019c60085481565b60606003805461033c90610e7d565b80601f016020809104026020016040519081016040528092919081815260200182805461036890610e7d565b80156103b35780601f1061038a576101008083540402835291602001916103b3565b820191905f5260205f20905b81548152906001019060200180831161039657829003601f168201915b5050505050905090565b5f336103ca818585610732565b60019150505b92915050565b6103de610855565b600855565b5f336103f08582856108af565b6103fb858585610927565b506001949350505050565b5f336103ca818585610418838361053f565b6104229190610ec9565b610732565b61042f610855565b610437610ac9565b565b610441610855565b6104375f610b1b565b610452610855565b610437610b6c565b60606004805461033c90610e7d565b610471610855565b5f818152600a6020526040808220805460ff191660011790555182917f7cecd68839ad762b96973d3c61ee7b12560f3d6c0096341c74314aa76d0cf72191a250565b5f33816104c0828661053f565b9050838110156105255760405162461bcd60e51b815260206004820152602560248201527f45524332303a2064656372656173656420616c6c6f77616e63652062656c6f77604482015264207a65726f60d81b60648201526084015b60405180910390fd5b6103fb8286868403610732565b5f336103ca818585610927565b6001600160a01b039182165f90815260016020908152604080832093909416825291909152205490565b610571610ba9565b610579610bef565b6001600160a01b0382166105a05760405163e6c4247b60e01b815260040160405180910390fd5b5f818152600a602052604090205460ff166105d15760405163852a1bdd60e01b81526004810182905260240161051c565b6001600160a01b0382165f908152600960205260409020546008546105f69082610ec9565b42101561063257426008548261060c9190610ec9565b6106169190610edc565b6040516398b9eae160e01b815260040161051c91815260200190565b6001600160a01b0383165f90815260096020526040902042905561065e83678ac7230489e80000610c48565b81836001600160a01b03167ff01da32686223933d8a18a391060918c7f11a3648639edd87ae013e2e2731743678ac7230489e800006040516106a291815260200190565b60405180910390a3506106b56001600655565b5050565b6106c1610855565b6001600160a01b0381166107265760405162461bcd60e51b815260206004820152602660248201527f4f776e61626c653a206e6577206f776e657220697320746865207a65726f206160448201526564647265737360d01b606482015260840161051c565b61072f81610b1b565b50565b6001600160a01b0383166107945760405162461bcd60e51b8152602060048201526024808201527f45524332303a20617070726f76652066726f6d20746865207a65726f206164646044820152637265737360e01b606482015260840161051c565b6001600160a01b0382166107f55760405162461bcd60e51b815260206004820152602260248201527f45524332303a20617070726f766520746f20746865207a65726f206164647265604482015261737360f01b606482015260840161051c565b6001600160a01b038381165f8181526001602090815260408083209487168084529482529182902085905590518481527f8c5be1e5ebec7d5bd14f71427d1e84f3dd0314c0f7b2291e5b200ac8c7c3b925910160405180910390a3505050565b6005546001600160a01b031633146104375760405162461bcd60e51b815260206004820181905260248201527f4f776e61626c653a2063616c6c6572206973206e6f7420746865206f776e6572604482015260640161051c565b5f6108ba848461053f565b90505f19811461092157818110156109145760405162461bcd60e51b815260206004820152601d60248201527f45524332303a20696e73756666696369656e7420616c6c6f77616e6365000000604482015260640161051c565b6109218484848403610732565b50505050565b6001600160a01b03831661098b5760405162461bcd60e51b815260206004820152602560248201527f45524332303a207472616e736665722066726f6d20746865207a65726f206164604482015264647265737360d81b606482015260840161051c565b6001600160a01b0382166109ed5760405162461bcd60e51b815260206004820152602360248201527f45524332303a207472616e7366657220746f20746865207a65726f206164647260448201526265737360e81b606482015260840161051c565b6001600160a01b0383165f9081526020819052604090205481811015610a645760405162461bcd60e51b815260206004820152602660248201527f45524332303a207472616e7366657220616d6f756e7420657863656564732062604482015265616c616e636560d01b606482015260840161051c565b6001600160a01b038481165f81815260208181526040808320878703905593871680835291849020805487019055925185815290927fddf252ad1be2c89b69c2b068fc378daa952ba7f163c4a11628f55a4df523b3ef910160405180910390a3610921565b610ad1610d05565b6007805460ff191690557f5db9ee0a495bf2e6ff9c91a7834c1ba4fdd244a5e8aa4e537bd38aeae4b073aa335b6040516001600160a01b03909116815260200160405180910390a1565b600580546001600160a01b038381166001600160a01b0319831681179093556040519116919082907f8be0079c531659141344cd1fd0a4f28419497f9722a3daafe3b4186f6b6457e0905f90a35050565b610b74610ba9565b6007805460ff191660011790557f62e78cea01bee320cd4e420270b5ea74000d11b0c9f74754ebdbfc544b05a258610afe3390565b60075460ff16156104375760405162461bcd60e51b815260206004820152601060248201526f14185d5cd8589b194e881c185d5cd95960821b604482015260640161051c565b600260065403610c415760405162461bcd60e51b815260206004820152601f60248201527f5265656e7472616e637947756172643a207265656e7472616e742063616c6c00604482015260640161051c565b6002600655565b6001600160a01b038216610c9e5760405162461bcd60e51b815260206004820152601f60248201527f45524332303a206d696e7420746f20746865207a65726f206164647265737300604482015260640161051c565b8060025f828254610caf9190610ec9565b90915550506001600160a01b0382165f81815260208181526040808320805486019055518481527fddf252ad1be2c89b69c2b068fc378daa952ba7f163c4a11628f55a4df523b3ef910160405180910390a35050565b60075460ff166104375760405162461bcd60e51b815260206004820152601460248201527314185d5cd8589b194e881b9bdd081c185d5cd95960621b604482015260640161051c565b5f6020808352835180828501525f5b81811015610d7957858101830151858201604001528201610d5d565b505f604082860101526040601f19601f8301168501019250505092915050565b80356001600160a01b0381168114610daf575f80fd5b919050565b5f8060408385031215610dc5575f80fd5b610dce83610d99565b946020939093013593505050565b5f60208284031215610dec575f80fd5b5035919050565b5f805f60608486031215610e05575f80fd5b610e0e84610d99565b9250610e1c60208501610d99565b9150604084013590509250925092565b5f60208284031215610e3c575f80fd5b610e4582610d99565b9392505050565b5f8060408385031215610e5d575f80fd5b610e6683610d99565b9150610e7460208401610d99565b90509250929050565b600181811c90821680610e9157607f821691505b602082108103610eaf57634e487b7160e01b5f52602260045260245ffd5b50919050565b634e487b7160e01b5f52601160045260245ffd5b808201808211156103d0576103d0610eb5565b818103818111156103d0576103d0610eb556fea26469706673582212208c8061cbd77a49b9c3dafee6a9997070942c8b95e0602eaf400fcfbdf99e2cf264736f6c63430008140033",
  "immutableReferences": {},
  "source": "// SPDX-License-Identifier: MIT\npragma solidity ^0.8.0;\n\nimport \"@openzeppelin/contracts/token/ERC20/ERC20.sol\";\nimport \"@openzeppelin/contracts/access/Ownable.sol\";\nimport \"@openzeppelin/contracts/security/ReentrancyGuard.sol\";\nimport \"@openzeppelin/contracts/security/Pausable.sol\";\n\ncontract PlantToken is ERC20, Ownable, ReentrancyGuard, Pausable {\n    uint256 public constant REWARD_AMOUNT = 10 * 10 ** 18; // 10 tokens\n    uint256 public rewardCooldown = 24 hours;\n    mapping(address => uint256) public lastRewardTime;\n    mapping(uint256 => bool) public rewardSet;\n\n    event RewardClaimed(\n        address indexed user,\n        uint256 indexed plantId,\n        uint256 amount\n    );\n    event RewardSetForPlant(uint256 indexed plantId);\n\n    error NoRewardSet(uint256 plantId);\n    error RewardCooldownNotElapsed(uint256 remainingTime);\n    error InvalidAddress();\n\n    constructor() ERC20(\"Plant Token\", \"PLT\") Ownable() {\n        _mint(msg.sender, 1000000 * 10 ** 18); // Mint 1 million tokens to deployer\n    }\n\n    function rewardUser(\n        address user,\n        uint256 plantId\n    ) external whenNotPaused nonReentrant {\n        if (user == address(0)) revert InvalidAddress();\n        if (!rewardSet[plantId]) revert NoRewardSet(plantId);\n\n        uint256 lastReward = lastRewardTime[user];\n        if (block.timestamp < lastReward + rewardCooldown) {\n            revert RewardCooldownNotElapsed(\n                (lastReward + rewardCooldown) - block.timestamp\n            );\n        }\n\n        lastRewardTime[user] = block.timestamp;\n        _mint(user, REWARD_AMOUNT);\n\n        emit RewardClaimed(user, plantId, REWARD_AMOUNT);\n    }\n\n    function setRewardForPlant(uint256 plantId) external onlyOwner {\n        rewardSet[plantId] = true;\n        emit RewardSetForPlant(plantId);\n    }\n\n    function setRewardCooldown(uint256 newCooldown) external onlyOwner {\n        rewardCooldown = newCooldown;\n    }\n\n    function pause() external onlyOwner {\n        _pause();\n    }\n\n    function unpause() external onlyOwner {\n        _unpause();\n    }\n}\n",
  "sourcePath": "C:\\Users\\Steph\\Downloads\\Plant-Watering-Reminder-DAPP\\contracts\\PlantToken.sol",
  "compiler": {
    "name": "solc",
    "version": "0.8.20+commit.a1b79de6.Emscripten.clang"
  },
  "schemaVersion": "3.4.16",
  "updatedAt": "2025-04-24T13:18:49.437Z",
  "devdoc": {
    "events": {
      "Approval(address,address,uint256)": {
        "details": "Emitted when the allowance of a `spender` for an `owner` is set by a call to {approve}. `value` is the new allowance."
      },
      "Paused(address)": {
        "details": "Emitted when the pause is triggered by `account`."
      },
      "Transfer(address,address,uint256)": {
        "details": "Emitted when `value` tokens are moved from one account (`from`) to another (`to`). Note that `value` may be zero."
      },
      "Unpaused(address)": {
        "details": "Emitted when the pause is lifted by `account`."
      }
    },
    "kind": "dev",
    "methods": {
      "allowance(address,address)": {
        "details": "See {IERC20-allowance}."
      },
      "approve(address,uint256)": {
        "details": "See {IERC20-approve}. NOTE: If `amount` is the maximum `uint256`, the allowance is not updated on `transferFrom`. This is semantically equivalent to an infinite approval. Requirements: - `spender` cannot be the zero address."
      },
      "balanceOf(address)": {
        "details": "See {IERC20-balanceOf}."
      },
      "decimals()": {
        "details": "Returns the number of decimals used to get its user representation. For example, if `decimals` equals `2`, a balance of `505` tokens should be displayed to a user as `5.05` (`505 / 10 ** 2`). Tokens usually opt for a value of 18, imitating the relationship between Ether and Wei. This is the default value returned by this function, unless it's overridden. NOTE: This information is only used for _display_ purposes: it in no way affects any of the arithmetic of the contract, including {IERC20-balanceOf} and {IERC20-transfer}."
      },
      "decreaseAllowance(address,uint256)": {
        "details": "Atomically decreases the allowance granted to `spender` by the caller. This is an alternative to {approve} that can be used as a mitigation for problems described in {IERC20-approve}. Emits an {Approval} event indicating the updated allowance. Requirements: - `spender` cannot be the zero address. - `spender` must have allowance for the caller of at least `subtractedValue`."
      },
      "increaseAllowance(address,uint256)": {
        "details": "Atomically increases the allowance granted to `spender` by the caller. This is an alternative to {approve} that can be used as a mitigation for problems described in {IERC20-approve}. Emits an {Approval} event indicating the updated allowance. Requirements: - `spender` cannot be the zero address."
      },
      "name()": {
        "details": "Returns the name of the token."
      },
      "owner()": {
        "details": "Returns the address of the current owner."
      },
      "paused()": {
        "details": "Returns true if the contract is paused, and false otherwise."
      },
      "renounceOwnership()": {
        "details": "Leaves the contract without owner. It will not be possible to call `onlyOwner` functions. Can only be called by the current owner. NOTE: Renouncing ownership will leave the contract without an owner, thereby disabling any functionality that is only available to the owner."
      },
      "symbol()": {
        "details": "Returns the symbol of the token, usually a shorter version of the name."
      },
      "totalSupply()": {
        "details": "See {IERC20-totalSupply}."
      },
      "transfer(address,uint256)": {
        "details": "See {IERC20-transfer}. Requirements: - `to` cannot be the zero address. - the caller must have a balance of at least `amount`."
      },
      "transferFrom(address,address,uint256)": {
        "details": "See {IERC20-transferFrom}. Emits an {Approval} event indicating the updated allowance. This is not required by the EIP. See the note at the beginning of {ERC20}. NOTE: Does not update the allowance if the current allowance is the maximum `uint256`. Requirements: - `from` and `to` cannot be the zero address. - `from` must have a balance of at least `amount`. - the caller must have allowance for ``from``'s tokens of at least `amount`."
      },
      "transferOwnership(address)": {
        "details": "Transfers ownership of the contract to a new account (`newOwner`). Can only be called by the current owner."
      }
    },
    "version": 1
  },
  "userdoc": {
    "kind": "user",
    "methods": {},
    "version": 1
  }
}