{
  "contractName": "PlantToken",
  "abi": [
    {
      "inputs": [],
      "stateMutability": "nonpayable",
      "type": "constructor"
    },
    {
      "inputs": [
        {
          "internalType": "address",
          "name": "spender",
          "type": "address"
        },
        {
          "internalType": "uint256",
          "name": "allowance",
          "type": "uint256"
        },
        {
          "internalType": "uint256",
          "name": "needed",
          "type": "uint256"
        }
      ],
      "name": "ERC20InsufficientAllowance",
      "type": "error"
    },
    {
      "inputs": [
        {
          "internalType": "address",
          "name": "sender",
          "type": "address"
        },
        {
          "internalType": "uint256",
          "name": "balance",
          "type": "uint256"
        },
        {
          "internalType": "uint256",
          "name": "needed",
          "type": "uint256"
        }
      ],
      "name": "ERC20InsufficientBalance",
      "type": "error"
    },
    {
      "inputs": [
        {
          "internalType": "address",
          "name": "approver",
          "type": "address"
        }
      ],
      "name": "ERC20InvalidApprover",
      "type": "error"
    },
    {
      "inputs": [
        {
          "internalType": "address",
          "name": "receiver",
          "type": "address"
        }
      ],
      "name": "ERC20InvalidReceiver",
      "type": "error"
    },
    {
      "inputs": [
        {
          "internalType": "address",
          "name": "sender",
          "type": "address"
        }
      ],
      "name": "ERC20InvalidSender",
      "type": "error"
    },
    {
      "inputs": [
        {
          "internalType": "address",
          "name": "spender",
          "type": "address"
        }
      ],
      "name": "ERC20InvalidSpender",
      "type": "error"
    },
    {
      "anonymous": false,
      "inputs": [
        {
          "indexed": true,
          "internalType": "address",
          "name": "owner",
          "type": "address"
        },
        {
          "indexed": true,
          "internalType": "address",
          "name": "spender",
          "type": "address"
        },
        {
          "indexed": false,
          "internalType": "uint256",
          "name": "value",
          "type": "uint256"
        }
      ],
      "name": "Approval",
      "type": "event"
    },
    {
      "anonymous": false,
      "inputs": [
        {
          "indexed": true,
          "internalType": "address",
          "name": "from",
          "type": "address"
        },
        {
          "indexed": true,
          "internalType": "address",
          "name": "to",
          "type": "address"
        },
        {
          "indexed": false,
          "internalType": "uint256",
          "name": "value",
          "type": "uint256"
        }
      ],
      "name": "Transfer",
      "type": "event"
    },
    {
      "inputs": [
        {
          "internalType": "address",
          "name": "owner",
          "type": "address"
        },
        {
          "internalType": "address",
          "name": "spender",
          "type": "address"
        }
      ],
      "name": "allowance",
      "outputs": [
        {
          "internalType": "uint256",
          "name": "",
          "type": "uint256"
        }
      ],
      "stateMutability": "view",
      "type": "function",
      "constant": true
    },
    {
      "inputs": [
        {
          "internalType": "address",
          "name": "spender",
          "type": "address"
        },
        {
          "internalType": "uint256",
          "name": "value",
          "type": "uint256"
        }
      ],
      "name": "approve",
      "outputs": [
        {
          "internalType": "bool",
          "name": "",
          "type": "bool"
        }
      ],
      "stateMutability": "nonpayable",
      "type": "function"
    },
    {
      "inputs": [
        {
          "internalType": "address",
          "name": "account",
          "type": "address"
        }
      ],
      "name": "balanceOf",
      "outputs": [
        {
          "internalType": "uint256",
          "name": "",
          "type": "uint256"
        }
      ],
      "stateMutability": "view",
      "type": "function",
      "constant": true
    },
    {
      "inputs": [],
      "name": "decimals",
      "outputs": [
        {
          "internalType": "uint8",
          "name": "",
          "type": "uint8"
        }
      ],
      "stateMutability": "view",
      "type": "function",
      "constant": true
    },
    {
      "inputs": [],
      "name": "name",
      "outputs": [
        {
          "internalType": "string",
          "name": "",
          "type": "string"
        }
      ],
      "stateMutability": "view",
      "type": "function",
      "constant": true
    },
    {
      "inputs": [],
      "name": "owner",
      "outputs": [
        {
          "internalType": "address",
          "name": "",
          "type": "address"
        }
      ],
      "stateMutability": "view",
      "type": "function",
      "constant": true
    },
    {
      "inputs": [
        {
          "internalType": "uint256",
          "name": "",
          "type": "uint256"
        }
      ],
      "name": "plantRewards",
      "outputs": [
        {
          "internalType": "uint256",
          "name": "",
          "type": "uint256"
        }
      ],
      "stateMutability": "view",
      "type": "function",
      "constant": true
    },
    {
      "inputs": [],
      "name": "symbol",
      "outputs": [
        {
          "internalType": "string",
          "name": "",
          "type": "string"
        }
      ],
      "stateMutability": "view",
      "type": "function",
      "constant": true
    },
    {
      "inputs": [],
      "name": "totalSupply",
      "outputs": [
        {
          "internalType": "uint256",
          "name": "",
          "type": "uint256"
        }
      ],
      "stateMutability": "view",
      "type": "function",
      "constant": true
    },
    {
      "inputs": [
        {
          "internalType": "address",
          "name": "to",
          "type": "address"
        },
        {
          "internalType": "uint256",
          "name": "value",
          "type": "uint256"
        }
      ],
      "name": "transfer",
      "outputs": [
        {
          "internalType": "bool",
          "name": "",
          "type": "bool"
        }
      ],
      "stateMutability": "nonpayable",
      "type": "function"
    },
    {
      "inputs": [
        {
          "internalType": "address",
          "name": "from",
          "type": "address"
        },
        {
          "internalType": "address",
          "name": "to",
          "type": "address"
        },
        {
          "internalType": "uint256",
          "name": "value",
          "type": "uint256"
        }
      ],
      "name": "transferFrom",
      "outputs": [
        {
          "internalType": "bool",
          "name": "",
          "type": "bool"
        }
      ],
      "stateMutability": "nonpayable",
      "type": "function"
    },
    {
      "inputs": [
        {
          "internalType": "uint256",
          "name": "plantId",
          "type": "uint256"
        },
        {
          "internalType": "uint256",
          "name": "rewardAmount",
          "type": "uint256"
        }
      ],
      "name": "setPlantReward",
      "outputs": [],
      "stateMutability": "nonpayable",
      "type": "function"
    },
    {
      "inputs": [
        {
          "internalType": "address",
          "name": "user",
          "type": "address"
        },
        {
          "internalType": "uint256",
          "name": "plantId",
          "type": "uint256"
        }
      ],
      "name": "rewardUser",
      "outputs": [],
      "stateMutability": "nonpayable",
      "type": "function"
    }
  ],
  "bytecode": "0x608060405234801562000010575f80fd5b506040518060400160405280600b81526020017f506c616e7420546f6b656e0000000000000000000000000000000000000000008152506040518060400160405280600381526020017f504c54000000000000000000000000000000000000000000000000000000000081525081600390816200008e919062000394565b508060049081620000a0919062000394565b5050503360055f6101000a81548173ffffffffffffffffffffffffffffffffffffffff021916908373ffffffffffffffffffffffffffffffffffffffff160217905550600a60065f8081526020019081526020015f2081905550601460065f600181526020019081526020015f2081905550601e60065f600281526020019081526020015f208190555062000478565b5f81519050919050565b7f4e487b71000000000000000000000000000000000000000000000000000000005f52604160045260245ffd5b7f4e487b71000000000000000000000000000000000000000000000000000000005f52602260045260245ffd5b5f6002820490506001821680620001ac57607f821691505b602082108103620001c257620001c162000167565b5b50919050565b5f819050815f5260205f209050919050565b5f6020601f8301049050919050565b5f82821b905092915050565b5f60088302620002267fffffffffffffffffffffffffffffffffffffffffffffffffffffffffffffffff82620001e9565b620002328683620001e9565b95508019841693508086168417925050509392505050565b5f819050919050565b5f819050919050565b5f6200027c6200027662000270846200024a565b62000253565b6200024a565b9050919050565b5f819050919050565b62000297836200025c565b620002af620002a68262000283565b848454620001f5565b825550505050565b5f90565b620002c5620002b7565b620002d28184846200028c565b505050565b5b81811015620002f957620002ed5f82620002bb565b600181019050620002d8565b5050565b601f82111562000348576200031281620001c8565b6200031d84620001da565b810160208510156200032d578190505b620003456200033c85620001da565b830182620002d7565b50505b505050565b5f82821c905092915050565b5f6200036a5f19846008026200034d565b1980831691505092915050565b5f62000384838362000359565b9150826002028217905092915050565b6200039f8262000130565b67ffffffffffffffff811115620003bb57620003ba6200013a565b5b620003c7825462000194565b620003d4828285620002fd565b5f60209050601f8311600181146200040a575f8415620003f5578287015190505b62000401858262000377565b86555062000470565b601f1984166200041a86620001c8565b5f5b8281101562000443578489015182556001820191506020850194506020810190506200041c565b868310156200046357848901516200045f601f89168262000359565b8355505b6001600288020188555050505b505050505050565b61121f80620004865f395ff3fe608060405234801561000f575f80fd5b50600436106100cd575f3560e01c806370a082311161008a57806395d89b411161006457806395d89b4114610225578063a9059cbb14610243578063dd62ed3e14610273578063e4e103dc146102a3576100cd565b806370a08231146101a75780638929adca146101d75780638da5cb5b14610207576100cd565b806306fdde03146100d1578063095ea7b3146100ef578063147bd7151461011f57806318160ddd1461013b57806323b872dd14610159578063313ce56714610189575b5f80fd5b6100d96102bf565b6040516100e69190610d1e565b60405180910390f35b61010960048036038101906101049190610dcf565b61034f565b6040516101169190610e27565b60405180910390f35b61013960048036038101906101349190610e40565b610371565b005b61014361041a565b6040516101509190610e8d565b60405180910390f35b610173600480360381019061016e9190610ea6565b610423565b6040516101809190610e27565b60405180910390f35b610191610451565b60405161019e9190610f11565b60405180910390f35b6101c160048036038101906101bc9190610f2a565b610459565b6040516101ce9190610e8d565b60405180910390f35b6101f160048036038101906101ec9190610f55565b61049e565b6040516101fe9190610e8d565b60405180910390f35b61020f6104b3565b60405161021c9190610f8f565b60405180910390f35b61022d6104d8565b60405161023a9190610d1e565b60405180910390f35b61025d60048036038101906102589190610dcf565b610568565b60405161026a9190610e27565b60405180910390f35b61028d60048036038101906102889190610fa8565b61058a565b60405161029a9190610e8d565b60405180910390f35b6102bd60048036038101906102b89190610dcf565b61060c565b005b6060600380546102ce90611013565b80601f01602080910402602001604051908101604052809291908181526020018280546102fa90611013565b80156103455780601f1061031c57610100808354040283529160200191610345565b820191905f5260205f20905b81548152906001019060200180831161032857829003601f168201915b5050505050905090565b5f80610359610691565b9050610366818585610698565b600191505092915050565b60055f9054906101000a900473ffffffffffffffffffffffffffffffffffffffff1673ffffffffffffffffffffffffffffffffffffffff163373ffffffffffffffffffffffffffffffffffffffff1614610400576040517f08c379a00000000000000000000000000000000000000000000000000000000081526004016103f79061108d565b60405180910390fd5b8060065f8481526020019081526020015f20819055505050565b5f600254905090565b5f8061042d610691565b905061043a8582856106aa565b61044585858561073d565b60019150509392505050565b5f6012905090565b5f805f8373ffffffffffffffffffffffffffffffffffffffff1673ffffffffffffffffffffffffffffffffffffffff1681526020019081526020015f20549050919050565b6006602052805f5260405f205f915090505481565b60055f9054906101000a900473ffffffffffffffffffffffffffffffffffffffff1681565b6060600480546104e790611013565b80601f016020809104026020016040519081016040528092919081815260200182805461051390611013565b801561055e5780601f106105355761010080835404028352916020019161055e565b820191905f5260205f20905b81548152906001019060200180831161054157829003601f168201915b5050505050905090565b5f80610572610691565b905061057f81858561073d565b600191505092915050565b5f60015f8473ffffffffffffffffffffffffffffffffffffffff1673ffffffffffffffffffffffffffffffffffffffff1681526020019081526020015f205f8373ffffffffffffffffffffffffffffffffffffffff1673ffffffffffffffffffffffffffffffffffffffff1681526020019081526020015f2054905092915050565b5f60065f8381526020019081526020015f20541161065f576040517f08c379a0000000000000000000000000000000000000000000000000000000008152600401610656906110f5565b60405180910390fd5b61068d82670de0b6b3a764000060065f8581526020019081526020015f20546106889190611140565b61082d565b5050565b5f33905090565b6106a583838360016108ac565b505050565b5f6106b5848461058a565b90507fffffffffffffffffffffffffffffffffffffffffffffffffffffffffffffffff8110156107375781811015610728578281836040517ffb8f41b200000000000000000000000000000000000000000000000000000000815260040161071f93929190611181565b60405180910390fd5b61073684848484035f6108ac565b5b50505050565b5f73ffffffffffffffffffffffffffffffffffffffff168373ffffffffffffffffffffffffffffffffffffffff16036107ad575f6040517f96c6fd1e0000000000000000000000000000000000000000000000000000000081526004016107a49190610f8f565b60405180910390fd5b5f73ffffffffffffffffffffffffffffffffffffffff168273ffffffffffffffffffffffffffffffffffffffff160361081d575f6040517fec442f050000000000000000000000000000000000000000000000000000000081526004016108149190610f8f565b60405180910390fd5b610828838383610a7b565b505050565b5f73ffffffffffffffffffffffffffffffffffffffff168273ffffffffffffffffffffffffffffffffffffffff160361089d575f6040517fec442f050000000000000000000000000000000000000000000000000000000081526004016108949190610f8f565b60405180910390fd5b6108a85f8383610a7b565b5050565b5f73ffffffffffffffffffffffffffffffffffffffff168473ffffffffffffffffffffffffffffffffffffffff160361091c575f6040517fe602df050000000000000000000000000000000000000000000000000000000081526004016109139190610f8f565b60405180910390fd5b5f73ffffffffffffffffffffffffffffffffffffffff168373ffffffffffffffffffffffffffffffffffffffff160361098c575f6040517f94280d620000000000000000000000000000000000000000000000000000000081526004016109839190610f8f565b60405180910390fd5b8160015f8673ffffffffffffffffffffffffffffffffffffffff1673ffffffffffffffffffffffffffffffffffffffff1681526020019081526020015f205f8573ffffffffffffffffffffffffffffffffffffffff1673ffffffffffffffffffffffffffffffffffffffff1681526020019081526020015f20819055508015610a75578273ffffffffffffffffffffffffffffffffffffffff168473ffffffffffffffffffffffffffffffffffffffff167f8c5be1e5ebec7d5bd14f71427d1e84f3dd0314c0f7b2291e5b200ac8c7c3b92584604051610a6c9190610e8d565b60405180910390a35b50505050565b5f73ffffffffffffffffffffffffffffffffffffffff168373ffffffffffffffffffffffffffffffffffffffff1603610acb578060025f828254610abf91906111b6565b92505081905550610b99565b5f805f8573ffffffffffffffffffffffffffffffffffffffff1673ffffffffffffffffffffffffffffffffffffffff1681526020019081526020015f2054905081811015610b54578381836040517fe450d38c000000000000000000000000000000000000000000000000000000008152600401610b4b93929190611181565b60405180910390fd5b8181035f808673ffffffffffffffffffffffffffffffffffffffff1673ffffffffffffffffffffffffffffffffffffffff1681526020019081526020015f2081905550505b5f73ffffffffffffffffffffffffffffffffffffffff168273ffffffffffffffffffffffffffffffffffffffff1603610be0578060025f8282540392505081905550610c2a565b805f808473ffffffffffffffffffffffffffffffffffffffff1673ffffffffffffffffffffffffffffffffffffffff1681526020019081526020015f205f82825401925050819055505b8173ffffffffffffffffffffffffffffffffffffffff168373ffffffffffffffffffffffffffffffffffffffff167fddf252ad1be2c89b69c2b068fc378daa952ba7f163c4a11628f55a4df523b3ef83604051610c879190610e8d565b60405180910390a3505050565b5f81519050919050565b5f82825260208201905092915050565b5f5b83811015610ccb578082015181840152602081019050610cb0565b5f8484015250505050565b5f601f19601f8301169050919050565b5f610cf082610c94565b610cfa8185610c9e565b9350610d0a818560208601610cae565b610d1381610cd6565b840191505092915050565b5f6020820190508181035f830152610d368184610ce6565b905092915050565b5f80fd5b5f73ffffffffffffffffffffffffffffffffffffffff82169050919050565b5f610d6b82610d42565b9050919050565b610d7b81610d61565b8114610d85575f80fd5b50565b5f81359050610d9681610d72565b92915050565b5f819050919050565b610dae81610d9c565b8114610db8575f80fd5b50565b5f81359050610dc981610da5565b92915050565b5f8060408385031215610de557610de4610d3e565b5b5f610df285828601610d88565b9250506020610e0385828601610dbb565b9150509250929050565b5f8115159050919050565b610e2181610e0d565b82525050565b5f602082019050610e3a5f830184610e18565b92915050565b5f8060408385031215610e5657610e55610d3e565b5b5f610e6385828601610dbb565b9250506020610e7485828601610dbb565b9150509250929050565b610e8781610d9c565b82525050565b5f602082019050610ea05f830184610e7e565b92915050565b5f805f60608486031215610ebd57610ebc610d3e565b5b5f610eca86828701610d88565b9350506020610edb86828701610d88565b9250506040610eec86828701610dbb565b9150509250925092565b5f60ff82169050919050565b610f0b81610ef6565b82525050565b5f602082019050610f245f830184610f02565b92915050565b5f60208284031215610f3f57610f3e610d3e565b5b5f610f4c84828501610d88565b91505092915050565b5f60208284031215610f6a57610f69610d3e565b5b5f610f7784828501610dbb565b91505092915050565b610f8981610d61565b82525050565b5f602082019050610fa25f830184610f80565b92915050565b5f8060408385031215610fbe57610fbd610d3e565b5b5f610fcb85828601610d88565b9250506020610fdc85828601610d88565b9150509250929050565b7f4e487b71000000000000000000000000000000000000000000000000000000005f52602260045260245ffd5b5f600282049050600182168061102a57607f821691505b60208210810361103d5761103c610fe6565b5b50919050565b7f4f6e6c79206f776e65722063616e2073657420726577617264730000000000005f82015250565b5f611077601a83610c9e565b915061108282611043565b602082019050919050565b5f6020820190508181035f8301526110a48161106b565b9050919050565b7f496e76616c696420706c616e74204944000000000000000000000000000000005f82015250565b5f6110df601083610c9e565b91506110ea826110ab565b602082019050919050565b5f6020820190508181035f83015261110c816110d3565b9050919050565b7f4e487b71000000000000000000000000000000000000000000000000000000005f52601160045260245ffd5b5f61114a82610d9c565b915061115583610d9c565b925082820261116381610d9c565b9150828204841483151761117a57611179611113565b5b5092915050565b5f6060820190506111945f830186610f80565b6111a16020830185610e7e565b6111ae6040830184610e7e565b949350505050565b5f6111c082610d9c565b91506111cb83610d9c565b92508282019050808211156111e3576111e2611113565b5b9291505056fea264697066735822122087ade1ae0d973a528929e90db15335e56bf9ad5a0c97621c42582fe22eca7ce464736f6c63430008140033",
  "immutableReferences": {},
  "source": "// SPDX-License-Identifier: MIT\npragma solidity ^0.8.20;\n\nimport \"@openzeppelin/contracts/token/ERC20/ERC20.sol\";\n\ncontract PlantToken is ERC20 {\n    address public owner;\n    mapping(uint => uint) public plantRewards; // Plant ID => Reward Amount\n\n    constructor() ERC20(\"Plant Token\", \"PLT\") {\n        owner = msg.sender;\n        // Set initial rewards for each plant\n        plantRewards[0] = 10; // Reward for plant 0\n        plantRewards[1] = 20; // Reward for plant 1\n        plantRewards[2] = 30; // Reward for plant 2\n        // ... Continue for other plants as needed\n    }\n\n    function setPlantReward(uint plantId, uint rewardAmount) external {\n        require(msg.sender == owner, \"Only owner can set rewards\");\n        plantRewards[plantId] = rewardAmount;\n    }\n\n    function rewardUser(address user, uint plantId) external {\n        require(plantRewards[plantId] > 0, \"Invalid plant ID\");\n        _mint(user, plantRewards[plantId] * 1e18); // Mint tokens based on plant type\n    }\n}\n",
  "sourcePath": "/workspaces/Plant-Watering-Reminder-DAPP/contracts/PlantToken.sol",
  "compiler": {
    "name": "solc",
    "version": "0.8.20+commit.a1b79de6.Emscripten.clang"
  },
  "schemaVersion": "3.4.16",
  "updatedAt": "2025-04-03T16:22:48.918Z",
  "networkType": "ethereum",
  "devdoc": {
    "errors": {
      "ERC20InsufficientAllowance(address,uint256,uint256)": [
        {
          "details": "Indicates a failure with the `spender`s `allowance`. Used in transfers.",
          "params": {
            "allowance": "Amount of tokens a `spender` is allowed to operate with.",
            "needed": "Minimum amount required to perform a transfer.",
            "spender": "Address that may be allowed to operate on tokens without being their owner."
          }
        }
      ],
      "ERC20InsufficientBalance(address,uint256,uint256)": [
        {
          "details": "Indicates an error related to the current `balance` of a `sender`. Used in transfers.",
          "params": {
            "balance": "Current balance for the interacting account.",
            "needed": "Minimum amount required to perform a transfer.",
            "sender": "Address whose tokens are being transferred."
          }
        }
      ],
      "ERC20InvalidApprover(address)": [
        {
          "details": "Indicates a failure with the `approver` of a token to be approved. Used in approvals.",
          "params": {
            "approver": "Address initiating an approval operation."
          }
        }
      ],
      "ERC20InvalidReceiver(address)": [
        {
          "details": "Indicates a failure with the token `receiver`. Used in transfers.",
          "params": {
            "receiver": "Address to which tokens are being transferred."
          }
        }
      ],
      "ERC20InvalidSender(address)": [
        {
          "details": "Indicates a failure with the token `sender`. Used in transfers.",
          "params": {
            "sender": "Address whose tokens are being transferred."
          }
        }
      ],
      "ERC20InvalidSpender(address)": [
        {
          "details": "Indicates a failure with the `spender` to be approved. Used in approvals.",
          "params": {
            "spender": "Address that may be allowed to operate on tokens without being their owner."
          }
        }
      ]
    },
    "events": {
      "Approval(address,address,uint256)": {
        "details": "Emitted when the allowance of a `spender` for an `owner` is set by a call to {approve}. `value` is the new allowance."
      },
      "Transfer(address,address,uint256)": {
        "details": "Emitted when `value` tokens are moved from one account (`from`) to another (`to`). Note that `value` may be zero."
      }
    },
    "kind": "dev",
    "methods": {
      "allowance(address,address)": {
        "details": "See {IERC20-allowance}."
      },
      "approve(address,uint256)": {
        "details": "See {IERC20-approve}. NOTE: If `value` is the maximum `uint256`, the allowance is not updated on `transferFrom`. This is semantically equivalent to an infinite approval. Requirements: - `spender` cannot be the zero address."
      },
      "balanceOf(address)": {
        "details": "See {IERC20-balanceOf}."
      },
      "decimals()": {
        "details": "Returns the number of decimals used to get its user representation. For example, if `decimals` equals `2`, a balance of `505` tokens should be displayed to a user as `5.05` (`505 / 10 ** 2`). Tokens usually opt for a value of 18, imitating the relationship between Ether and Wei. This is the default value returned by this function, unless it's overridden. NOTE: This information is only used for _display_ purposes: it in no way affects any of the arithmetic of the contract, including {IERC20-balanceOf} and {IERC20-transfer}."
      },
      "name()": {
        "details": "Returns the name of the token."
      },
      "symbol()": {
        "details": "Returns the symbol of the token, usually a shorter version of the name."
      },
      "totalSupply()": {
        "details": "See {IERC20-totalSupply}."
      },
      "transfer(address,uint256)": {
        "details": "See {IERC20-transfer}. Requirements: - `to` cannot be the zero address. - the caller must have a balance of at least `value`."
      },
      "transferFrom(address,address,uint256)": {
        "details": "See {IERC20-transferFrom}. Skips emitting an {Approval} event indicating an allowance update. This is not required by the ERC. See {xref-ERC20-_approve-address-address-uint256-bool-}[_approve]. NOTE: Does not update the allowance if the current allowance is the maximum `uint256`. Requirements: - `from` and `to` cannot be the zero address. - `from` must have a balance of at least `value`. - the caller must have allowance for ``from``'s tokens of at least `value`."
      }
    },
    "version": 1
  },
  "userdoc": {
    "kind": "user",
    "methods": {},
    "version": 1
  }
}