{
  "contractName": "PlantToken",
  "abi": [
    {
      "inputs": [],
      "stateMutability": "nonpayable",
      "type": "constructor"
    },
    {
      "inputs": [],
      "name": "InvalidAddress",
      "type": "error"
    },
    {
      "inputs": [
        {
          "internalType": "uint256",
          "name": "plantId",
          "type": "uint256"
        }
      ],
      "name": "NoRewardSet",
      "type": "error"
    },
    {
      "inputs": [
        {
          "internalType": "uint256",
          "name": "remainingTime",
          "type": "uint256"
        }
      ],
      "name": "RewardCooldownNotElapsed",
      "type": "error"
    },
    {
      "anonymous": false,
      "inputs": [
        {
          "indexed": true,
          "internalType": "address",
          "name": "owner",
          "type": "address"
        },
        {
          "indexed": true,
          "internalType": "address",
          "name": "spender",
          "type": "address"
        },
        {
          "indexed": false,
          "internalType": "uint256",
          "name": "value",
          "type": "uint256"
        }
      ],
      "name": "Approval",
      "type": "event"
    },
    {
      "anonymous": false,
      "inputs": [
        {
          "indexed": true,
          "internalType": "address",
          "name": "previousOwner",
          "type": "address"
        },
        {
          "indexed": true,
          "internalType": "address",
          "name": "newOwner",
          "type": "address"
        }
      ],
      "name": "OwnershipTransferred",
      "type": "event"
    },
    {
      "anonymous": false,
      "inputs": [
        {
          "indexed": false,
          "internalType": "address",
          "name": "account",
          "type": "address"
        }
      ],
      "name": "Paused",
      "type": "event"
    },
    {
      "anonymous": false,
      "inputs": [
        {
          "indexed": true,
          "internalType": "address",
          "name": "user",
          "type": "address"
        },
        {
          "indexed": true,
          "internalType": "uint256",
          "name": "plantId",
          "type": "uint256"
        },
        {
          "indexed": false,
          "internalType": "uint256",
          "name": "amount",
          "type": "uint256"
        }
      ],
      "name": "RewardClaimed",
      "type": "event"
    },
    {
      "anonymous": false,
      "inputs": [
        {
          "indexed": true,
          "internalType": "uint256",
          "name": "plantId",
          "type": "uint256"
        }
      ],
      "name": "RewardSetForPlant",
      "type": "event"
    },
    {
      "anonymous": false,
      "inputs": [
        {
          "indexed": true,
          "internalType": "address",
          "name": "from",
          "type": "address"
        },
        {
          "indexed": true,
          "internalType": "address",
          "name": "to",
          "type": "address"
        },
        {
          "indexed": false,
          "internalType": "uint256",
          "name": "value",
          "type": "uint256"
        }
      ],
      "name": "Transfer",
      "type": "event"
    },
    {
      "anonymous": false,
      "inputs": [
        {
          "indexed": false,
          "internalType": "address",
          "name": "account",
          "type": "address"
        }
      ],
      "name": "Unpaused",
      "type": "event"
    },
    {
      "inputs": [],
      "name": "REWARD_AMOUNT",
      "outputs": [
        {
          "internalType": "uint256",
          "name": "",
          "type": "uint256"
        }
      ],
      "stateMutability": "view",
      "type": "function",
      "constant": true
    },
    {
      "inputs": [
        {
          "internalType": "address",
          "name": "owner",
          "type": "address"
        },
        {
          "internalType": "address",
          "name": "spender",
          "type": "address"
        }
      ],
      "name": "allowance",
      "outputs": [
        {
          "internalType": "uint256",
          "name": "",
          "type": "uint256"
        }
      ],
      "stateMutability": "view",
      "type": "function",
      "constant": true
    },
    {
      "inputs": [
        {
          "internalType": "address",
          "name": "spender",
          "type": "address"
        },
        {
          "internalType": "uint256",
          "name": "amount",
          "type": "uint256"
        }
      ],
      "name": "approve",
      "outputs": [
        {
          "internalType": "bool",
          "name": "",
          "type": "bool"
        }
      ],
      "stateMutability": "nonpayable",
      "type": "function"
    },
    {
      "inputs": [
        {
          "internalType": "address",
          "name": "account",
          "type": "address"
        }
      ],
      "name": "balanceOf",
      "outputs": [
        {
          "internalType": "uint256",
          "name": "",
          "type": "uint256"
        }
      ],
      "stateMutability": "view",
      "type": "function",
      "constant": true
    },
    {
      "inputs": [],
      "name": "decimals",
      "outputs": [
        {
          "internalType": "uint8",
          "name": "",
          "type": "uint8"
        }
      ],
      "stateMutability": "view",
      "type": "function",
      "constant": true
    },
    {
      "inputs": [
        {
          "internalType": "address",
          "name": "spender",
          "type": "address"
        },
        {
          "internalType": "uint256",
          "name": "subtractedValue",
          "type": "uint256"
        }
      ],
      "name": "decreaseAllowance",
      "outputs": [
        {
          "internalType": "bool",
          "name": "",
          "type": "bool"
        }
      ],
      "stateMutability": "nonpayable",
      "type": "function"
    },
    {
      "inputs": [
        {
          "internalType": "address",
          "name": "spender",
          "type": "address"
        },
        {
          "internalType": "uint256",
          "name": "addedValue",
          "type": "uint256"
        }
      ],
      "name": "increaseAllowance",
      "outputs": [
        {
          "internalType": "bool",
          "name": "",
          "type": "bool"
        }
      ],
      "stateMutability": "nonpayable",
      "type": "function"
    },
    {
      "inputs": [
        {
          "internalType": "address",
          "name": "",
          "type": "address"
        }
      ],
      "name": "lastRewardTime",
      "outputs": [
        {
          "internalType": "uint256",
          "name": "",
          "type": "uint256"
        }
      ],
      "stateMutability": "view",
      "type": "function",
      "constant": true
    },
    {
      "inputs": [],
      "name": "name",
      "outputs": [
        {
          "internalType": "string",
          "name": "",
          "type": "string"
        }
      ],
      "stateMutability": "view",
      "type": "function",
      "constant": true
    },
    {
      "inputs": [],
      "name": "owner",
      "outputs": [
        {
          "internalType": "address",
          "name": "",
          "type": "address"
        }
      ],
      "stateMutability": "view",
      "type": "function",
      "constant": true
    },
    {
      "inputs": [],
      "name": "paused",
      "outputs": [
        {
          "internalType": "bool",
          "name": "",
          "type": "bool"
        }
      ],
      "stateMutability": "view",
      "type": "function",
      "constant": true
    },
    {
      "inputs": [],
      "name": "renounceOwnership",
      "outputs": [],
      "stateMutability": "nonpayable",
      "type": "function"
    },
    {
      "inputs": [],
      "name": "rewardCoolDownPeriod",
      "outputs": [
        {
          "internalType": "uint256",
          "name": "",
          "type": "uint256"
        }
      ],
      "stateMutability": "view",
      "type": "function",
      "constant": true
    },
    {
      "inputs": [],
      "name": "rewardCooldown",
      "outputs": [
        {
          "internalType": "uint256",
          "name": "",
          "type": "uint256"
        }
      ],
      "stateMutability": "view",
      "type": "function",
      "constant": true
    },
    {
      "inputs": [
        {
          "internalType": "uint256",
          "name": "",
          "type": "uint256"
        }
      ],
      "name": "rewardSet",
      "outputs": [
        {
          "internalType": "bool",
          "name": "",
          "type": "bool"
        }
      ],
      "stateMutability": "view",
      "type": "function",
      "constant": true
    },
    {
      "inputs": [],
      "name": "symbol",
      "outputs": [
        {
          "internalType": "string",
          "name": "",
          "type": "string"
        }
      ],
      "stateMutability": "view",
      "type": "function",
      "constant": true
    },
    {
      "inputs": [],
      "name": "totalSupply",
      "outputs": [
        {
          "internalType": "uint256",
          "name": "",
          "type": "uint256"
        }
      ],
      "stateMutability": "view",
      "type": "function",
      "constant": true
    },
    {
      "inputs": [
        {
          "internalType": "address",
          "name": "to",
          "type": "address"
        },
        {
          "internalType": "uint256",
          "name": "amount",
          "type": "uint256"
        }
      ],
      "name": "transfer",
      "outputs": [
        {
          "internalType": "bool",
          "name": "",
          "type": "bool"
        }
      ],
      "stateMutability": "nonpayable",
      "type": "function"
    },
    {
      "inputs": [
        {
          "internalType": "address",
          "name": "from",
          "type": "address"
        },
        {
          "internalType": "address",
          "name": "to",
          "type": "address"
        },
        {
          "internalType": "uint256",
          "name": "amount",
          "type": "uint256"
        }
      ],
      "name": "transferFrom",
      "outputs": [
        {
          "internalType": "bool",
          "name": "",
          "type": "bool"
        }
      ],
      "stateMutability": "nonpayable",
      "type": "function"
    },
    {
      "inputs": [
        {
          "internalType": "address",
          "name": "newOwner",
          "type": "address"
        }
      ],
      "name": "transferOwnership",
      "outputs": [],
      "stateMutability": "nonpayable",
      "type": "function"
    },
    {
      "inputs": [
        {
          "internalType": "address",
          "name": "user",
          "type": "address"
        },
        {
          "internalType": "uint256",
          "name": "plantId",
          "type": "uint256"
        }
      ],
      "name": "rewardUser",
      "outputs": [],
      "stateMutability": "nonpayable",
      "type": "function"
    },
    {
      "inputs": [
        {
          "internalType": "uint256",
          "name": "plantId",
          "type": "uint256"
        }
      ],
      "name": "setRewardForPlant",
      "outputs": [],
      "stateMutability": "nonpayable",
      "type": "function"
    },
    {
      "inputs": [
        {
          "internalType": "uint256",
          "name": "newCooldown",
          "type": "uint256"
        }
      ],
      "name": "setRewardCooldown",
      "outputs": [],
      "stateMutability": "nonpayable",
      "type": "function"
    },
    {
      "inputs": [],
      "name": "pause",
      "outputs": [],
      "stateMutability": "nonpayable",
      "type": "function"
    },
    {
      "inputs": [],
      "name": "unpause",
      "outputs": [],
      "stateMutability": "nonpayable",
      "type": "function"
    }
  ],
  "bytecode": "0x6080604052620151806008553480156200001857600080fd5b506040518060400160405280600b81526020017f506c616e7420546f6b656e0000000000000000000000000000000000000000008152506040518060400160405280600381526020017f504c54000000000000000000000000000000000000000000000000000000000081525081600390805190602001906200009d9291906200036c565b508060049080519060200190620000b69291906200036c565b505050620000d9620000cd6200012760201b60201c565b6200012f60201b60201c565b60016006819055506000600760006101000a81548160ff021916908315150217905550620001183369d3c21bcecceda1000000620001f560201b60201c565b600854600981905550620005c7565b600033905090565b6000600560009054906101000a900473ffffffffffffffffffffffffffffffffffffffff16905081600560006101000a81548173ffffffffffffffffffffffffffffffffffffffff021916908373ffffffffffffffffffffffffffffffffffffffff1602179055508173ffffffffffffffffffffffffffffffffffffffff168173ffffffffffffffffffffffffffffffffffffffff167f8be0079c531659141344cd1fd0a4f28419497f9722a3daafe3b4186f6b6457e060405160405180910390a35050565b600073ffffffffffffffffffffffffffffffffffffffff168273ffffffffffffffffffffffffffffffffffffffff160362000267576040517f08c379a00000000000000000000000000000000000000000000000000000000081526004016200025e906200047d565b60405180910390fd5b6200027b600083836200036260201b60201c565b80600260008282546200028f9190620004d8565b92505081905550806000808473ffffffffffffffffffffffffffffffffffffffff1673ffffffffffffffffffffffffffffffffffffffff168152602001908152602001600020600082825401925050819055508173ffffffffffffffffffffffffffffffffffffffff16600073ffffffffffffffffffffffffffffffffffffffff167fddf252ad1be2c89b69c2b068fc378daa952ba7f163c4a11628f55a4df523b3ef8360405162000342919062000546565b60405180910390a36200035e600083836200036760201b60201c565b5050565b505050565b505050565b8280546200037a9062000592565b90600052602060002090601f0160209004810192826200039e5760008555620003ea565b82601f10620003b957805160ff1916838001178555620003ea565b82800160010185558215620003ea579182015b82811115620003e9578251825591602001919060010190620003cc565b5b509050620003f99190620003fd565b5090565b5b8082111562000418576000816000905550600101620003fe565b5090565b600082825260208201905092915050565b7f45524332303a206d696e7420746f20746865207a65726f206164647265737300600082015250565b600062000465601f836200041c565b915062000472826200042d565b602082019050919050565b60006020820190508181036000830152620004988162000456565b9050919050565b6000819050919050565b7f4e487b7100000000000000000000000000000000000000000000000000000000600052601160045260246000fd5b6000620004e5826200049f565b9150620004f2836200049f565b9250827fffffffffffffffffffffffffffffffffffffffffffffffffffffffffffffffff038211156200052a5762000529620004a9565b5b828201905092915050565b62000540816200049f565b82525050565b60006020820190506200055d600083018462000535565b92915050565b7f4e487b7100000000000000000000000000000000000000000000000000000000600052602260045260246000fd5b60006002820490506001821680620005ab57607f821691505b602082108103620005c157620005c062000563565b5b50919050565b61202f80620005d76000396000f3fe608060405234801561001057600080fd5b50600436106101735760003560e01c806370a08231116100de578063a457c2d711610097578063dd62ed3e11610071578063dd62ed3e1461043e578063e4e103dc1461046e578063f2fde38b1461048a578063f43d19b9146104a657610173565b8063a457c2d7146103c0578063a9059cbb146103f0578063cf8494421461042057610173565b806370a0823114610324578063715018a6146103545780638456cb591461035e5780638da5cb5b1461036857806395d89b411461038657806396f826ae146103a457610173565b8063296aab5311610130578063296aab5314610260578063313ce5671461027e578063395093511461029c5780633b5d441e146102cc5780633f4ba83a146102fc5780635c975abb1461030657610173565b806306fdde0314610178578063095ea7b31461019657806318160ddd146101c65780631ff9182f146101e457806323b872dd14610200578063266b243414610230575b600080fd5b6101806104c4565b60405161018d91906115b1565b60405180910390f35b6101b060048036038101906101ab919061166c565b610556565b6040516101bd91906116c7565b60405180910390f35b6101ce610579565b6040516101db91906116f1565b60405180910390f35b6101fe60048036038101906101f9919061170c565b610583565b005b61021a60048036038101906102159190611739565b610595565b60405161022791906116c7565b60405180910390f35b61024a6004803603810190610245919061170c565b6105c4565b60405161025791906116c7565b60405180910390f35b6102686105e4565b60405161027591906116f1565b60405180910390f35b6102866105ea565b60405161029391906117a8565b60405180910390f35b6102b660048036038101906102b1919061166c565b6105f3565b6040516102c391906116c7565b60405180910390f35b6102e660048036038101906102e191906117c3565b61062a565b6040516102f391906116f1565b60405180910390f35b610304610642565b005b61030e610654565b60405161031b91906116c7565b60405180910390f35b61033e600480360381019061033991906117c3565b61066b565b60405161034b91906116f1565b60405180910390f35b61035c6106b3565b005b6103666106c7565b005b6103706106d9565b60405161037d91906117ff565b60405180910390f35b61038e610703565b60405161039b91906115b1565b60405180910390f35b6103be60048036038101906103b9919061170c565b610795565b005b6103da60048036038101906103d5919061166c565b6107f9565b6040516103e791906116c7565b60405180910390f35b61040a6004803603810190610405919061166c565b610870565b60405161041791906116c7565b60405180910390f35b610428610893565b60405161043591906116f1565b60405180910390f35b6104586004803603810190610453919061181a565b61089f565b60405161046591906116f1565b60405180910390f35b6104886004803603810190610483919061166c565b610926565b005b6104a4600480360381019061049f91906117c3565b610b66565b005b6104ae610be9565b6040516104bb91906116f1565b60405180910390f35b6060600380546104d390611889565b80601f01602080910402602001604051908101604052809291908181526020018280546104ff90611889565b801561054c5780601f106105215761010080835404028352916020019161054c565b820191906000526020600020905b81548152906001019060200180831161052f57829003601f168201915b5050505050905090565b600080610561610bef565b905061056e818585610bf7565b600191505092915050565b6000600254905090565b61058b610dc0565b8060098190555050565b6000806105a0610bef565b90506105ad858285610e3e565b6105b8858585610eca565b60019150509392505050565b600b6020528060005260406000206000915054906101000a900460ff1681565b60085481565b60006012905090565b6000806105fe610bef565b905061061f818585610610858961089f565b61061a91906118e9565b610bf7565b600191505092915050565b600a6020528060005260406000206000915090505481565b61064a610dc0565b610652611140565b565b6000600760009054906101000a900460ff16905090565b60008060008373ffffffffffffffffffffffffffffffffffffffff1673ffffffffffffffffffffffffffffffffffffffff168152602001908152602001600020549050919050565b6106bb610dc0565b6106c560006111a3565b565b6106cf610dc0565b6106d7611269565b565b6000600560009054906101000a900473ffffffffffffffffffffffffffffffffffffffff16905090565b60606004805461071290611889565b80601f016020809104026020016040519081016040528092919081815260200182805461073e90611889565b801561078b5780601f106107605761010080835404028352916020019161078b565b820191906000526020600020905b81548152906001019060200180831161076e57829003601f168201915b5050505050905090565b61079d610dc0565b6001600b600083815260200190815260200160002060006101000a81548160ff021916908315150217905550807f7cecd68839ad762b96973d3c61ee7b12560f3d6c0096341c74314aa76d0cf72160405160405180910390a250565b600080610804610bef565b90506000610812828661089f565b905083811015610857576040517f08c379a000000000000000000000000000000000000000000000000000000000815260040161084e906119b1565b60405180910390fd5b6108648286868403610bf7565b60019250505092915050565b60008061087b610bef565b9050610888818585610eca565b600191505092915050565b678ac7230489e8000081565b6000600160008473ffffffffffffffffffffffffffffffffffffffff1673ffffffffffffffffffffffffffffffffffffffff16815260200190815260200160002060008373ffffffffffffffffffffffffffffffffffffffff1673ffffffffffffffffffffffffffffffffffffffff16815260200190815260200160002054905092915050565b61092e6112cc565b610936611316565b600073ffffffffffffffffffffffffffffffffffffffff168273ffffffffffffffffffffffffffffffffffffffff160361099c576040517fe6c4247b00000000000000000000000000000000000000000000000000000000815260040160405180910390fd5b600b600082815260200190815260200160002060009054906101000a900460ff166109fe57806040517f852a1bdd0000000000000000000000000000000000000000000000000000000081526004016109f591906116f1565b60405180910390fd5b6000600a60008473ffffffffffffffffffffffffffffffffffffffff1673ffffffffffffffffffffffffffffffffffffffff16815260200190815260200160002054905060095481610a5091906118e9565b421015610aac574260095482610a6691906118e9565b610a7091906119d1565b6040517f98b9eae1000000000000000000000000000000000000000000000000000000008152600401610aa391906116f1565b60405180910390fd5b42600a60008573ffffffffffffffffffffffffffffffffffffffff1673ffffffffffffffffffffffffffffffffffffffff16815260200190815260200160002081905550610b0283678ac7230489e80000611365565b818373ffffffffffffffffffffffffffffffffffffffff167ff01da32686223933d8a18a391060918c7f11a3648639edd87ae013e2e2731743678ac7230489e80000604051610b5191906116f1565b60405180910390a350610b626114bb565b5050565b610b6e610dc0565b600073ffffffffffffffffffffffffffffffffffffffff168173ffffffffffffffffffffffffffffffffffffffff1603610bdd576040517f08c379a0000000000000000000000000000000000000000000000000000000008152600401610bd490611a77565b60405180910390fd5b610be6816111a3565b50565b60095481565b600033905090565b600073ffffffffffffffffffffffffffffffffffffffff168373ffffffffffffffffffffffffffffffffffffffff1603610c66576040517f08c379a0000000000000000000000000000000000000000000000000000000008152600401610c5d90611b09565b60405180910390fd5b600073ffffffffffffffffffffffffffffffffffffffff168273ffffffffffffffffffffffffffffffffffffffff1603610cd5576040517f08c379a0000000000000000000000000000000000000000000000000000000008152600401610ccc90611b9b565b60405180910390fd5b80600160008573ffffffffffffffffffffffffffffffffffffffff1673ffffffffffffffffffffffffffffffffffffffff16815260200190815260200160002060008473ffffffffffffffffffffffffffffffffffffffff1673ffffffffffffffffffffffffffffffffffffffff168152602001908152602001600020819055508173ffffffffffffffffffffffffffffffffffffffff168373ffffffffffffffffffffffffffffffffffffffff167f8c5be1e5ebec7d5bd14f71427d1e84f3dd0314c0f7b2291e5b200ac8c7c3b92583604051610db391906116f1565b60405180910390a3505050565b610dc8610bef565b73ffffffffffffffffffffffffffffffffffffffff16610de66106d9565b73ffffffffffffffffffffffffffffffffffffffff1614610e3c576040517f08c379a0000000000000000000000000000000000000000000000000000000008152600401610e3390611c07565b60405180910390fd5b565b6000610e4a848461089f565b90507fffffffffffffffffffffffffffffffffffffffffffffffffffffffffffffffff8114610ec45781811015610eb6576040517f08c379a0000000000000000000000000000000000000000000000000000000008152600401610ead90611c73565b60405180910390fd5b610ec38484848403610bf7565b5b50505050565b600073ffffffffffffffffffffffffffffffffffffffff168373ffffffffffffffffffffffffffffffffffffffff1603610f39576040517f08c379a0000000000000000000000000000000000000000000000000000000008152600401610f3090611d05565b60405180910390fd5b600073ffffffffffffffffffffffffffffffffffffffff168273ffffffffffffffffffffffffffffffffffffffff1603610fa8576040517f08c379a0000000000000000000000000000000000000000000000000000000008152600401610f9f90611d97565b60405180910390fd5b610fb38383836114c5565b60008060008573ffffffffffffffffffffffffffffffffffffffff1673ffffffffffffffffffffffffffffffffffffffff16815260200190815260200160002054905081811015611039576040517f08c379a000000000000000000000000000000000000000000000000000000000815260040161103090611e29565b60405180910390fd5b8181036000808673ffffffffffffffffffffffffffffffffffffffff1673ffffffffffffffffffffffffffffffffffffffff16815260200190815260200160002081905550816000808573ffffffffffffffffffffffffffffffffffffffff1673ffffffffffffffffffffffffffffffffffffffff168152602001908152602001600020600082825401925050819055508273ffffffffffffffffffffffffffffffffffffffff168473ffffffffffffffffffffffffffffffffffffffff167fddf252ad1be2c89b69c2b068fc378daa952ba7f163c4a11628f55a4df523b3ef8460405161112791906116f1565b60405180910390a361113a8484846114ca565b50505050565b6111486114cf565b6000600760006101000a81548160ff0219169083151502179055507f5db9ee0a495bf2e6ff9c91a7834c1ba4fdd244a5e8aa4e537bd38aeae4b073aa61118c610bef565b60405161119991906117ff565b60405180910390a1565b6000600560009054906101000a900473ffffffffffffffffffffffffffffffffffffffff16905081600560006101000a81548173ffffffffffffffffffffffffffffffffffffffff021916908373ffffffffffffffffffffffffffffffffffffffff1602179055508173ffffffffffffffffffffffffffffffffffffffff168173ffffffffffffffffffffffffffffffffffffffff167f8be0079c531659141344cd1fd0a4f28419497f9722a3daafe3b4186f6b6457e060405160405180910390a35050565b6112716112cc565b6001600760006101000a81548160ff0219169083151502179055507f62e78cea01bee320cd4e420270b5ea74000d11b0c9f74754ebdbfc544b05a2586112b5610bef565b6040516112c291906117ff565b60405180910390a1565b6112d4610654565b15611314576040517f08c379a000000000000000000000000000000000000000000000000000000000815260040161130b90611e95565b60405180910390fd5b565b60026006540361135b576040517f08c379a000000000000000000000000000000000000000000000000000000000815260040161135290611f01565b60405180910390fd5b6002600681905550565b600073ffffffffffffffffffffffffffffffffffffffff168273ffffffffffffffffffffffffffffffffffffffff16036113d4576040517f08c379a00000000000000000000000000000000000000000000000000000000081526004016113cb90611f6d565b60405180910390fd5b6113e0600083836114c5565b80600260008282546113f291906118e9565b92505081905550806000808473ffffffffffffffffffffffffffffffffffffffff1673ffffffffffffffffffffffffffffffffffffffff168152602001908152602001600020600082825401925050819055508173ffffffffffffffffffffffffffffffffffffffff16600073ffffffffffffffffffffffffffffffffffffffff167fddf252ad1be2c89b69c2b068fc378daa952ba7f163c4a11628f55a4df523b3ef836040516114a391906116f1565b60405180910390a36114b7600083836114ca565b5050565b6001600681905550565b505050565b505050565b6114d7610654565b611516576040517f08c379a000000000000000000000000000000000000000000000000000000000815260040161150d90611fd9565b60405180910390fd5b565b600081519050919050565b600082825260208201905092915050565b60005b83811015611552578082015181840152602081019050611537565b83811115611561576000848401525b50505050565b6000601f19601f8301169050919050565b600061158382611518565b61158d8185611523565b935061159d818560208601611534565b6115a681611567565b840191505092915050565b600060208201905081810360008301526115cb8184611578565b905092915050565b600080fd5b600073ffffffffffffffffffffffffffffffffffffffff82169050919050565b6000611603826115d8565b9050919050565b611613816115f8565b811461161e57600080fd5b50565b6000813590506116308161160a565b92915050565b6000819050919050565b61164981611636565b811461165457600080fd5b50565b60008135905061166681611640565b92915050565b60008060408385031215611683576116826115d3565b5b600061169185828601611621565b92505060206116a285828601611657565b9150509250929050565b60008115159050919050565b6116c1816116ac565b82525050565b60006020820190506116dc60008301846116b8565b92915050565b6116eb81611636565b82525050565b600060208201905061170660008301846116e2565b92915050565b600060208284031215611722576117216115d3565b5b600061173084828501611657565b91505092915050565b600080600060608486031215611752576117516115d3565b5b600061176086828701611621565b935050602061177186828701611621565b925050604061178286828701611657565b9150509250925092565b600060ff82169050919050565b6117a28161178c565b82525050565b60006020820190506117bd6000830184611799565b92915050565b6000602082840312156117d9576117d86115d3565b5b60006117e784828501611621565b91505092915050565b6117f9816115f8565b82525050565b600060208201905061181460008301846117f0565b92915050565b60008060408385031215611831576118306115d3565b5b600061183f85828601611621565b925050602061185085828601611621565b9150509250929050565b7f4e487b7100000000000000000000000000000000000000000000000000000000600052602260045260246000fd5b600060028204905060018216806118a157607f821691505b6020821081036118b4576118b361185a565b5b50919050565b7f4e487b7100000000000000000000000000000000000000000000000000000000600052601160045260246000fd5b60006118f482611636565b91506118ff83611636565b9250827fffffffffffffffffffffffffffffffffffffffffffffffffffffffffffffffff03821115611934576119336118ba565b5b828201905092915050565b7f45524332303a2064656372656173656420616c6c6f77616e63652062656c6f7760008201527f207a65726f000000000000000000000000000000000000000000000000000000602082015250565b600061199b602583611523565b91506119a68261193f565b604082019050919050565b600060208201905081810360008301526119ca8161198e565b9050919050565b60006119dc82611636565b91506119e783611636565b9250828210156119fa576119f96118ba565b5b828203905092915050565b7f4f776e61626c653a206e6577206f776e657220697320746865207a65726f206160008201527f6464726573730000000000000000000000000000000000000000000000000000602082015250565b6000611a61602683611523565b9150611a6c82611a05565b604082019050919050565b60006020820190508181036000830152611a9081611a54565b9050919050565b7f45524332303a20617070726f76652066726f6d20746865207a65726f2061646460008201527f7265737300000000000000000000000000000000000000000000000000000000602082015250565b6000611af3602483611523565b9150611afe82611a97565b604082019050919050565b60006020820190508181036000830152611b2281611ae6565b9050919050565b7f45524332303a20617070726f766520746f20746865207a65726f20616464726560008201527f7373000000000000000000000000000000000000000000000000000000000000602082015250565b6000611b85602283611523565b9150611b9082611b29565b604082019050919050565b60006020820190508181036000830152611bb481611b78565b9050919050565b7f4f776e61626c653a2063616c6c6572206973206e6f7420746865206f776e6572600082015250565b6000611bf1602083611523565b9150611bfc82611bbb565b602082019050919050565b60006020820190508181036000830152611c2081611be4565b9050919050565b7f45524332303a20696e73756666696369656e7420616c6c6f77616e6365000000600082015250565b6000611c5d601d83611523565b9150611c6882611c27565b602082019050919050565b60006020820190508181036000830152611c8c81611c50565b9050919050565b7f45524332303a207472616e736665722066726f6d20746865207a65726f20616460008201527f6472657373000000000000000000000000000000000000000000000000000000602082015250565b6000611cef602583611523565b9150611cfa82611c93565b604082019050919050565b60006020820190508181036000830152611d1e81611ce2565b9050919050565b7f45524332303a207472616e7366657220746f20746865207a65726f206164647260008201527f6573730000000000000000000000000000000000000000000000000000000000602082015250565b6000611d81602383611523565b9150611d8c82611d25565b604082019050919050565b60006020820190508181036000830152611db081611d74565b9050919050565b7f45524332303a207472616e7366657220616d6f756e742065786365656473206260008201527f616c616e63650000000000000000000000000000000000000000000000000000602082015250565b6000611e13602683611523565b9150611e1e82611db7565b604082019050919050565b60006020820190508181036000830152611e4281611e06565b9050919050565b7f5061757361626c653a2070617573656400000000000000000000000000000000600082015250565b6000611e7f601083611523565b9150611e8a82611e49565b602082019050919050565b60006020820190508181036000830152611eae81611e72565b9050919050565b7f5265656e7472616e637947756172643a207265656e7472616e742063616c6c00600082015250565b6000611eeb601f83611523565b9150611ef682611eb5565b602082019050919050565b60006020820190508181036000830152611f1a81611ede565b9050919050565b7f45524332303a206d696e7420746f20746865207a65726f206164647265737300600082015250565b6000611f57601f83611523565b9150611f6282611f21565b602082019050919050565b60006020820190508181036000830152611f8681611f4a565b9050919050565b7f5061757361626c653a206e6f7420706175736564000000000000000000000000600082015250565b6000611fc3601483611523565b9150611fce82611f8d565b602082019050919050565b60006020820190508181036000830152611ff281611fb6565b905091905056fea2646970667358221220ed1ed814136aad18c04462c52eb9eb0d431cfe84927a79441c6ea5183e6aaa3964736f6c634300080d0033",
  "immutableReferences": {},
  "source": "// SPDX-License-Identifier: MIT\npragma solidity ^0.8.13;\n\nimport \"@openzeppelin/contracts/token/ERC20/ERC20.sol\";\nimport \"@openzeppelin/contracts/access/Ownable.sol\";\nimport \"@openzeppelin/contracts/security/ReentrancyGuard.sol\";\nimport \"@openzeppelin/contracts/security/Pausable.sol\";\n\ncontract PlantToken is ERC20, Ownable, ReentrancyGuard, Pausable {\n    uint256 public constant REWARD_AMOUNT = 10 * 10 ** 18; // 10 tokens\n    uint256 public rewardCoolDownPeriod = 24 hours;\n    uint256 public rewardCooldown;\n\n    mapping(address => uint256) public lastRewardTime;\n    mapping(uint256 => bool) public rewardSet; // Changed to uint256 for plantId\n\n    event RewardClaimed(\n        address indexed user,\n        uint256 indexed plantId,\n        uint256 amount\n    );\n\n    event RewardSetForPlant(uint256 indexed plantId);\n\n    error NoRewardSet(uint256 plantId);\n    error RewardCooldownNotElapsed(uint256 remainingTime);\n    error InvalidAddress();\n\n    constructor() ERC20(\"Plant Token\", \"PLT\") Ownable() {\n        _mint(msg.sender, 1000000 * 10 ** 18); // Mint 1 million tokens to deployer\n        rewardCooldown = rewardCoolDownPeriod; // Initialize rewardCooldown\n    }\n\n    function rewardUser(\n        address user,\n        uint256 plantId\n    ) external whenNotPaused nonReentrant {\n        if (user == address(0)) revert InvalidAddress();\n        if (!rewardSet[plantId]) revert NoRewardSet(plantId); // Fixed type mismatch\n\n        uint256 lastReward = lastRewardTime[user];\n        if (block.timestamp < lastReward + rewardCooldown) {\n            revert RewardCooldownNotElapsed(\n                lastReward + rewardCooldown - block.timestamp\n            );\n        }\n\n        lastRewardTime[user] = block.timestamp;\n        _mint(user, REWARD_AMOUNT);\n\n        emit RewardClaimed(user, plantId, REWARD_AMOUNT);\n    }\n\n    function setRewardForPlant(uint256 plantId) external onlyOwner {\n        rewardSet[plantId] = true; // Fixed type mismatch\n        emit RewardSetForPlant(plantId);\n    }\n\n    function setRewardCooldown(uint256 newCooldown) external onlyOwner {\n        rewardCooldown = newCooldown;\n    }\n\n    function pause() external onlyOwner {\n        _pause();\n    }\n\n    function unpause() external onlyOwner {\n        _unpause();\n    }\n}\n",
  "sourcePath": "C:\\Users\\Steph\\Downloads\\Plant-Watering-Reminder-DAPP\\contracts\\PlantToken.sol",
  "compiler": {
    "name": "solc",
    "version": "0.8.13+commit.abaa5c0e.Emscripten.clang"
  },
  "schemaVersion": "3.4.16",
  "updatedAt": "2025-04-26T01:04:53.811Z",
  "networkType": "ethereum",
  "devdoc": {
    "kind": "dev",
    "methods": {
      "allowance(address,address)": {
        "details": "See {IERC20-allowance}."
      },
      "approve(address,uint256)": {
        "details": "See {IERC20-approve}. NOTE: If `amount` is the maximum `uint256`, the allowance is not updated on `transferFrom`. This is semantically equivalent to an infinite approval. Requirements: - `spender` cannot be the zero address."
      },
      "balanceOf(address)": {
        "details": "See {IERC20-balanceOf}."
      },
      "decimals()": {
        "details": "Returns the number of decimals used to get its user representation. For example, if `decimals` equals `2`, a balance of `505` tokens should be displayed to a user as `5.05` (`505 / 10 ** 2`). Tokens usually opt for a value of 18, imitating the relationship between Ether and Wei. This is the default value returned by this function, unless it's overridden. NOTE: This information is only used for _display_ purposes: it in no way affects any of the arithmetic of the contract, including {IERC20-balanceOf} and {IERC20-transfer}."
      },
      "decreaseAllowance(address,uint256)": {
        "details": "Atomically decreases the allowance granted to `spender` by the caller. This is an alternative to {approve} that can be used as a mitigation for problems described in {IERC20-approve}. Emits an {Approval} event indicating the updated allowance. Requirements: - `spender` cannot be the zero address. - `spender` must have allowance for the caller of at least `subtractedValue`."
      },
      "increaseAllowance(address,uint256)": {
        "details": "Atomically increases the allowance granted to `spender` by the caller. This is an alternative to {approve} that can be used as a mitigation for problems described in {IERC20-approve}. Emits an {Approval} event indicating the updated allowance. Requirements: - `spender` cannot be the zero address."
      },
      "name()": {
        "details": "Returns the name of the token."
      },
      "owner()": {
        "details": "Returns the address of the current owner."
      },
      "paused()": {
        "details": "Returns true if the contract is paused, and false otherwise."
      },
      "renounceOwnership()": {
        "details": "Leaves the contract without owner. It will not be possible to call `onlyOwner` functions. Can only be called by the current owner. NOTE: Renouncing ownership will leave the contract without an owner, thereby disabling any functionality that is only available to the owner."
      },
      "symbol()": {
        "details": "Returns the symbol of the token, usually a shorter version of the name."
      },
      "totalSupply()": {
        "details": "See {IERC20-totalSupply}."
      },
      "transfer(address,uint256)": {
        "details": "See {IERC20-transfer}. Requirements: - `to` cannot be the zero address. - the caller must have a balance of at least `amount`."
      },
      "transferFrom(address,address,uint256)": {
        "details": "See {IERC20-transferFrom}. Emits an {Approval} event indicating the updated allowance. This is not required by the EIP. See the note at the beginning of {ERC20}. NOTE: Does not update the allowance if the current allowance is the maximum `uint256`. Requirements: - `from` and `to` cannot be the zero address. - `from` must have a balance of at least `amount`. - the caller must have allowance for ``from``'s tokens of at least `amount`."
      },
      "transferOwnership(address)": {
        "details": "Transfers ownership of the contract to a new account (`newOwner`). Can only be called by the current owner."
      }
    },
    "version": 1
  },
  "userdoc": {
    "kind": "user",
    "methods": {},
    "version": 1
  }
}